{
  "_format": "hh-sol-artifact-1",
  "contractName": "ERC721Router",
  "sourceName": "contracts/nft/ERC721Router.sol",
  "abi": [
    {
      "anonymous": false,
      "inputs": [
        {
          "indexed": false,
          "internalType": "bytes32",
          "name": "messageHash",
          "type": "bytes32"
        },
        {
          "indexed": false,
          "internalType": "bytes",
          "name": "messageBody",
          "type": "bytes"
        }
      ],
      "name": "DispatchFrom721",
      "type": "event"
    },
    {
      "anonymous": false,
      "inputs": [
        {
          "indexed": false,
          "internalType": "address",
          "name": "localToken",
          "type": "address"
        },
        {
          "indexed": false,
          "internalType": "uint32",
          "name": "domain",
          "type": "uint32"
        },
        {
          "indexed": false,
          "internalType": "address",
          "name": "remoteToken",
          "type": "address"
        },
        {
          "indexed": false,
          "internalType": "bool",
          "name": "isNative",
          "type": "bool"
        }
      ],
      "name": "MapTokens",
      "type": "event"
    },
    {
      "anonymous": false,
      "inputs": [
        {
          "indexed": true,
          "internalType": "address",
          "name": "previousOwner",
          "type": "address"
        },
        {
          "indexed": true,
          "internalType": "address",
          "name": "newOwner",
          "type": "address"
        }
      ],
      "name": "OwnershipTransferred",
      "type": "event"
    },
    {
      "inputs": [
        {
          "internalType": "bytes32",
          "name": "_leaf",
          "type": "bytes32"
        },
        {
          "internalType": "bytes32[32]",
          "name": "_proof",
          "type": "bytes32[32]"
        },
        {
          "internalType": "uint256",
          "name": "_index",
          "type": "uint256"
        }
      ],
      "name": "branchRoot",
      "outputs": [
        {
          "internalType": "bytes32",
          "name": "_current",
          "type": "bytes32"
        }
      ],
      "stateMutability": "pure",
      "type": "function"
    },
    {
      "inputs": [
        {
          "internalType": "uint32",
          "name": "_domain",
          "type": "uint32"
        },
        {
          "internalType": "bytes32",
          "name": "_router",
          "type": "bytes32"
        }
      ],
      "name": "enrollRemoteRouter",
      "outputs": [],
      "stateMutability": "nonpayable",
      "type": "function"
    },
    {
      "inputs": [
        {
          "internalType": "uint32",
          "name": "_domain",
          "type": "uint32"
        },
        {
          "internalType": "address",
          "name": "_router",
          "type": "address"
        }
      ],
      "name": "enrollRemoteRouterByAddress",
      "outputs": [],
      "stateMutability": "nonpayable",
      "type": "function"
    },
    {
      "inputs": [
        {
          "internalType": "uint32",
          "name": "_origin",
          "type": "uint32"
        },
        {
          "internalType": "bytes32",
          "name": "_sender",
          "type": "bytes32"
        },
        {
          "internalType": "bytes",
          "name": "_message",
          "type": "bytes"
        }
      ],
      "name": "handle",
      "outputs": [],
      "stateMutability": "nonpayable",
      "type": "function"
    },
    {
      "inputs": [
        {
          "internalType": "address",
          "name": "_xAppConnectionManager",
          "type": "address"
        },
        {
          "internalType": "address",
          "name": "__tokenMapper",
          "type": "address"
        }
      ],
      "name": "initialize",
      "outputs": [],
      "stateMutability": "nonpayable",
      "type": "function"
    },
    {
      "inputs": [
        {
          "internalType": "address",
          "name": "addr",
          "type": "address"
        },
        {
          "internalType": "uint256",
          "name": "tokenId",
          "type": "uint256"
        }
      ],
      "name": "isTransferred",
      "outputs": [
        {
          "internalType": "bool",
          "name": "",
          "type": "bool"
        }
      ],
      "stateMutability": "view",
      "type": "function"
    },
    {
      "inputs": [
        {
          "internalType": "address",
          "name": "",
          "type": "address"
        }
      ],
      "name": "localTokenData",
      "outputs": [
        {
          "internalType": "bool",
          "name": "isNative",
          "type": "bool"
        }
      ],
      "stateMutability": "view",
      "type": "function"
    },
    {
      "inputs": [
        {
          "internalType": "address",
          "name": "localToken",
          "type": "address"
        },
        {
          "internalType": "uint32",
          "name": "domain",
          "type": "uint32"
        },
        {
          "internalType": "address",
          "name": "remoteToken",
          "type": "address"
        },
        {
          "internalType": "bool",
          "name": "isNative",
          "type": "bool"
        }
      ],
      "name": "mapTokens",
      "outputs": [],
      "stateMutability": "nonpayable",
      "type": "function"
    },
    {
      "inputs": [],
      "name": "owner",
      "outputs": [
        {
          "internalType": "address",
          "name": "",
          "type": "address"
        }
      ],
      "stateMutability": "view",
      "type": "function"
    },
    {
      "inputs": [
        {
          "internalType": "address",
          "name": "",
          "type": "address"
        },
        {
          "internalType": "uint32",
          "name": "",
          "type": "uint32"
        }
      ],
      "name": "remoteTokenIds",
      "outputs": [
        {
          "internalType": "address",
          "name": "",
          "type": "address"
        }
      ],
      "stateMutability": "view",
      "type": "function"
    },
    {
      "inputs": [
        {
          "internalType": "uint32",
          "name": "",
          "type": "uint32"
        }
      ],
      "name": "remotes",
      "outputs": [
        {
          "internalType": "bytes32",
          "name": "",
          "type": "bytes32"
        }
      ],
      "stateMutability": "view",
      "type": "function"
    },
    {
      "inputs": [],
      "name": "renounceOwnership",
      "outputs": [],
      "stateMutability": "nonpayable",
      "type": "function"
    },
    {
      "inputs": [
        {
          "internalType": "address",
          "name": "_token",
          "type": "address"
        },
        {
          "internalType": "uint256",
          "name": "_tokenId",
          "type": "uint256"
        },
        {
          "internalType": "uint32",
          "name": "_domain",
          "type": "uint32"
        },
        {
          "internalType": "address",
          "name": "_recipient",
          "type": "address"
        }
      ],
      "name": "send",
      "outputs": [],
      "stateMutability": "nonpayable",
      "type": "function"
    },
    {
      "inputs": [
        {
          "internalType": "address",
          "name": "__tokenMapper",
          "type": "address"
        }
      ],
      "name": "setTokenMapper",
      "outputs": [],
      "stateMutability": "nonpayable",
      "type": "function"
    },
    {
      "inputs": [
        {
          "internalType": "address",
          "name": "_xAppConnectionManager",
          "type": "address"
        }
      ],
      "name": "setXAppConnectionManager",
      "outputs": [],
      "stateMutability": "nonpayable",
      "type": "function"
    },
    {
      "inputs": [
        {
          "internalType": "address",
          "name": "newOwner",
          "type": "address"
        }
      ],
      "name": "transferOwnership",
      "outputs": [],
      "stateMutability": "nonpayable",
      "type": "function"
    },
    {
      "inputs": [],
      "name": "xAppConnectionManager",
      "outputs": [
        {
          "internalType": "contract XAppConnectionManager",
          "name": "",
          "type": "address"
        }
      ],
      "stateMutability": "view",
      "type": "function"
    }
  ],
  "bytecode": "0x608060405234801561001057600080fd5b50612f65806100206000396000f3fe608060405234801561001057600080fd5b506004361061010b5760003560e01c80637ffe9a92116100a2578063a288b46311610071578063a288b4631461028e578063afed432e146102aa578063b49c53a7146102da578063dbb7d9d1146102f6578063f2fde38b146103265761010b565b80637ffe9a92146101f457806383bbb806146102245780638da5cb5b14610254578063979dfa7f146102725761010b565b8063485cc955116100de578063485cc9551461018257806356d5d4751461019e578063715018a6146101ba57806377d63d1d146101c45761010b565b8063163c4f79146101105780633339df961461012c57806341bdc8b51461014a578063458a26a914610166575b600080fd5b61012a6004803603810190610125919061243e565b610342565b005b6101346107d2565b6040516101419190612aff565b60405180910390f35b610164600480360381019061015f91906122ff565b6107f8565b005b610180600480360381019061017b91906124dd565b6108eb565b005b61019c600480360381019061019791906123c6565b610abd565b005b6101b860048036038101906101b3919061265b565b610c07565b005b6101c2611197565b005b6101de60048036038101906101d99190612540565b611307565b6040516101eb9190612ab4565b60405180910390f35b61020e60048036038101906102099190612402565b611353565b60405161021b9190612a99565b60405180910390f35b61023e600480360381019061023991906125ba565b6113be565b60405161024b9190612ab4565b60405180910390f35b61025c6113d6565b6040516102699190612933565b60405180910390f35b61028c600480360381019061028791906125e3565b611400565b005b6102a860048036038101906102a391906122ff565b6114d6565b005b6102c460048036038101906102bf91906124a1565b6115c9565b6040516102d19190612933565b60405180910390f35b6102f460048036038101906102ef919061261f565b61160b565b005b610310600480360381019061030b91906122ff565b6116e2565b60405161031d9190612a99565b60405180910390f35b610340600480360381019061033b91906122ff565b61170d565b005b600073ffffffffffffffffffffffffffffffffffffffff168173ffffffffffffffffffffffffffffffffffffffff1614156103b2576040517f08c379a00000000000000000000000000000000000000000000000000000000081526004016103a990612bba565b60405180910390fd5b60006103bd83611902565b9050600060cb60008773ffffffffffffffffffffffffffffffffffffffff1673ffffffffffffffffffffffffffffffffffffffff16815260200190815260200160002060008563ffffffff1663ffffffff16815260200190815260200160002060009054906101000a900473ffffffffffffffffffffffffffffffffffffffff169050600073ffffffffffffffffffffffffffffffffffffffff168173ffffffffffffffffffffffffffffffffffffffff1614156104b0576040517f08c379a00000000000000000000000000000000000000000000000000000000081526004016104a790612b7a565b60405180910390fd5b60008690508073ffffffffffffffffffffffffffffffffffffffff166323b872dd3330896040518463ffffffff1660e01b81526004016104f29392919061294e565b600060405180830381600087803b15801561050c57600080fd5b505af1158015610520573d6000803e3d6000fd5b5050505060ca60008873ffffffffffffffffffffffffffffffffffffffff1673ffffffffffffffffffffffffffffffffffffffff16815260200190815260200160002060000160009054906101000a900460ff166105e8578673ffffffffffffffffffffffffffffffffffffffff1663bc4627ad876040518263ffffffff1660e01b81526004016105b19190612bfa565b600060405180830381600087803b1580156105cb57600080fd5b505af11580156105df573d6000803e3d6000fd5b50505050610655565b600160ca60008973ffffffffffffffffffffffffffffffffffffffff1673ffffffffffffffffffffffffffffffffffffffff168152602001908152602001600020600101600088815260200190815260200160002060006101000a81548160ff0219169083151502179055505b6000610678886106636119a4565b8886898c60018081111561067357fe5b611a4e565b90507feaa83a96afcaba8a284edf1cd862d96cff40136c1593fa2dee0879713dc076a48180519060200120826040516106b2929190612acf565b60405180910390a1606560009054906101000a900473ffffffffffffffffffffffffffffffffffffffff1673ffffffffffffffffffffffffffffffffffffffff16639fa92f9d6040518163ffffffff1660e01b815260040160206040518083038186803b15801561072257600080fd5b505afa158015610736573d6000803e3d6000fd5b505050506040513d601f19601f8201168201806040525081019061075a9190612591565b73ffffffffffffffffffffffffffffffffffffffff1663fa31de018786846040518463ffffffff1660e01b815260040161079693929190612c15565b600060405180830381600087803b1580156107b057600080fd5b505af11580156107c4573d6000803e3d6000fd5b505050505050505050505050565b606560009054906101000a900473ffffffffffffffffffffffffffffffffffffffff1681565b610800611a89565b73ffffffffffffffffffffffffffffffffffffffff1661081e6113d6565b73ffffffffffffffffffffffffffffffffffffffff16146108a7576040517f08c379a00000000000000000000000000000000000000000000000000000000081526004018080602001828103825260208152602001807f4f776e61626c653a2063616c6c6572206973206e6f7420746865206f776e657281525060200191505060405180910390fd5b80606560006101000a81548173ffffffffffffffffffffffffffffffffffffffff021916908373ffffffffffffffffffffffffffffffffffffffff16021790555050565b60c960009054906101000a900473ffffffffffffffffffffffffffffffffffffffff1673ffffffffffffffffffffffffffffffffffffffff163373ffffffffffffffffffffffffffffffffffffffff161461097b576040517f08c379a000000000000000000000000000000000000000000000000000000000815260040161097290612b5a565b60405180910390fd5b61098483611902565b508160cb60008673ffffffffffffffffffffffffffffffffffffffff1673ffffffffffffffffffffffffffffffffffffffff16815260200190815260200160002060008563ffffffff1663ffffffff16815260200190815260200160002060006101000a81548173ffffffffffffffffffffffffffffffffffffffff021916908373ffffffffffffffffffffffffffffffffffffffff1602179055508060ca60008673ffffffffffffffffffffffffffffffffffffffff1673ffffffffffffffffffffffffffffffffffffffff16815260200190815260200160002060000160006101000a81548160ff0219169083151502179055507f8b7e3e84d3d3e74cc7f6c3c54c45fb1d7ab98b70a870fd038251e4ecf0655b2384848484604051610aaf94939291906129e5565b60405180910390a150505050565b600060019054906101000a900460ff1680610adc5750610adb611a91565b5b80610af2575060008054906101000a900460ff16155b610b47576040517f08c379a000000000000000000000000000000000000000000000000000000000815260040180806020018281038252602e815260200180612f02602e913960400191505060405180910390fd5b60008060019054906101000a900460ff161590508015610b97576001600060016101000a81548160ff02191690831515021790555060016000806101000a81548160ff0219169083151502179055505b610ba083611aa2565b8160c960006101000a81548173ffffffffffffffffffffffffffffffffffffffff021916908373ffffffffffffffffffffffffffffffffffffffff1602179055508015610c025760008060016101000a81548160ff0219169083151502179055505b505050565b610c1033611bea565b610c82576040517f08c379a00000000000000000000000000000000000000000000000000000000081526004018080602001828103825260088152602001807f217265706c69636100000000000000000000000000000000000000000000000081525060200191505060405180910390fd5b8282610c8e8282611cb7565b610d00576040517f08c379a000000000000000000000000000000000000000000000000000000000815260040180806020018281038252600e8152602001807f2172656d6f746520726f7574657200000000000000000000000000000000000081525060200191505060405180910390fd5b6000806000806000806000610d148a611ce3565b965096509650965096509650965060006001811115610d2f57fe5b8160ff166001811115610d3e57fe5b6001811115610d4957fe5b1415610d8a576040517f08c379a0000000000000000000000000000000000000000000000000000000008152600401610d8190612b1a565b60405180910390fd5b610d926119a4565b63ffffffff168563ffffffff1614610ddf576040517f08c379a0000000000000000000000000000000000000000000000000000000008152600401610dd690612b9a565b60405180910390fd5b8673ffffffffffffffffffffffffffffffffffffffff1660cb60008673ffffffffffffffffffffffffffffffffffffffff1673ffffffffffffffffffffffffffffffffffffffff16815260200190815260200160002060008863ffffffff1663ffffffff16815260200190815260200160002060009054906101000a900473ffffffffffffffffffffffffffffffffffffffff1673ffffffffffffffffffffffffffffffffffffffff1614610ec9576040517f08c379a0000000000000000000000000000000000000000000000000000000008152600401610ec090612b3a565b60405180910390fd5b60ca60008573ffffffffffffffffffffffffffffffffffffffff1673ffffffffffffffffffffffffffffffffffffffff16815260200190815260200160002060000160009054906101000a900460ff168015610f82575060ca60008573ffffffffffffffffffffffffffffffffffffffff1673ffffffffffffffffffffffffffffffffffffffff168152602001908152602001600020600101600083815260200190815260200160002060009054906101000a900460ff165b156110745760008490508073ffffffffffffffffffffffffffffffffffffffff166323b872dd3086866040518463ffffffff1660e01b8152600401610fc993929190612985565b600060405180830381600087803b158015610fe357600080fd5b505af1158015610ff7573d6000803e3d6000fd5b50505050600060ca60008773ffffffffffffffffffffffffffffffffffffffff1673ffffffffffffffffffffffffffffffffffffffff168152602001908152602001600020600101600085815260200190815260200160002060006101000a81548160ff0219169083151502179055505050505050505050611190565b60ca60008573ffffffffffffffffffffffffffffffffffffffff1673ffffffffffffffffffffffffffffffffffffffff16815260200190815260200160002060000160009054906101000a900460ff166111475760008490508073ffffffffffffffffffffffffffffffffffffffff166359e238d685856040518363ffffffff1660e01b81526004016111089291906129bc565b600060405180830381600087803b15801561112257600080fd5b505af1158015611136573d6000803e3d6000fd5b505050505050505050505050611190565b6000611188576040517f08c379a000000000000000000000000000000000000000000000000000000000815260040161117f90612bda565b60405180910390fd5b505050505050505b5050505050565b61119f611a89565b73ffffffffffffffffffffffffffffffffffffffff166111bd6113d6565b73ffffffffffffffffffffffffffffffffffffffff1614611246576040517f08c379a00000000000000000000000000000000000000000000000000000000081526004018080602001828103825260208152602001807f4f776e61626c653a2063616c6c6572206973206e6f7420746865206f776e657281525060200191505060405180910390fd5b600073ffffffffffffffffffffffffffffffffffffffff16603360009054906101000a900473ffffffffffffffffffffffffffffffffffffffff1673ffffffffffffffffffffffffffffffffffffffff167f8be0079c531659141344cd1fd0a4f28419497f9722a3daafe3b4186f6b6457e060405160405180910390a36000603360006101000a81548173ffffffffffffffffffffffffffffffffffffffff021916908373ffffffffffffffffffffffffffffffffffffffff160217905550565b600061134a848460208060200260405190810160405280929190826020800280828437600081840152601f19601f82011690508083019250505050505084611d29565b90509392505050565b600060ca60008473ffffffffffffffffffffffffffffffffffffffff1673ffffffffffffffffffffffffffffffffffffffff168152602001908152602001600020600101600083815260200190815260200160002060009054906101000a900460ff16905092915050565b60976020528060005260406000206000915090505481565b6000603360009054906101000a900473ffffffffffffffffffffffffffffffffffffffff16905090565b611408611a89565b73ffffffffffffffffffffffffffffffffffffffff166114266113d6565b73ffffffffffffffffffffffffffffffffffffffff16146114af576040517f08c379a00000000000000000000000000000000000000000000000000000000081526004018080602001828103825260208152602001807f4f776e61626c653a2063616c6c6572206973206e6f7420746865206f776e657281525060200191505060405180910390fd5b6114d2828273ffffffffffffffffffffffffffffffffffffffff1660001b61160b565b5050565b6114de611a89565b73ffffffffffffffffffffffffffffffffffffffff166114fc6113d6565b73ffffffffffffffffffffffffffffffffffffffff1614611585576040517f08c379a00000000000000000000000000000000000000000000000000000000081526004018080602001828103825260208152602001807f4f776e61626c653a2063616c6c6572206973206e6f7420746865206f776e657281525060200191505060405180910390fd5b8060c960006101000a81548173ffffffffffffffffffffffffffffffffffffffff021916908373ffffffffffffffffffffffffffffffffffffffff16021790555050565b60cb6020528160005260406000206020528060005260406000206000915091509054906101000a900473ffffffffffffffffffffffffffffffffffffffff1681565b611613611a89565b73ffffffffffffffffffffffffffffffffffffffff166116316113d6565b73ffffffffffffffffffffffffffffffffffffffff16146116ba576040517f08c379a00000000000000000000000000000000000000000000000000000000081526004018080602001828103825260208152602001807f4f776e61626c653a2063616c6c6572206973206e6f7420746865206f776e657281525060200191505060405180910390fd5b80609760008463ffffffff1663ffffffff168152602001908152602001600020819055505050565b60ca6020528060005260406000206000915090508060000160009054906101000a900460ff16905081565b611715611a89565b73ffffffffffffffffffffffffffffffffffffffff166117336113d6565b73ffffffffffffffffffffffffffffffffffffffff16146117bc576040517f08c379a00000000000000000000000000000000000000000000000000000000081526004018080602001828103825260208152602001807f4f776e61626c653a2063616c6c6572206973206e6f7420746865206f776e657281525060200191505060405180910390fd5b600073ffffffffffffffffffffffffffffffffffffffff168173ffffffffffffffffffffffffffffffffffffffff161415611842576040517f08c379a0000000000000000000000000000000000000000000000000000000008152600401808060200182810382526026815260200180612edc6026913960400191505060405180910390fd5b8073ffffffffffffffffffffffffffffffffffffffff16603360009054906101000a900473ffffffffffffffffffffffffffffffffffffffff1673ffffffffffffffffffffffffffffffffffffffff167f8be0079c531659141344cd1fd0a4f28419497f9722a3daafe3b4186f6b6457e060405160405180910390a380603360006101000a81548173ffffffffffffffffffffffffffffffffffffffff021916908373ffffffffffffffffffffffffffffffffffffffff16021790555050565b6000609760008363ffffffff1663ffffffff1681526020019081526020016000205490506000801b81141561199f576040517f08c379a00000000000000000000000000000000000000000000000000000000081526004018080602001828103825260078152602001807f2172656d6f74650000000000000000000000000000000000000000000000000081525060200191505060405180910390fd5b919050565b6000606560009054906101000a900473ffffffffffffffffffffffffffffffffffffffff1673ffffffffffffffffffffffffffffffffffffffff16638d3638f46040518163ffffffff1660e01b815260040160206040518083038186803b158015611a0e57600080fd5b505afa158015611a22573d6000803e3d6000fd5b505050506040513d6020811015611a3857600080fd5b8101908080519060200190929190505050905090565b606087878787878787604051602001611a6d9796959493929190612a2a565b6040516020818303038152906040529050979650505050505050565b600033905090565b6000611a9c30611de2565b15905090565b600060019054906101000a900460ff1680611ac15750611ac0611a91565b5b80611ad7575060008054906101000a900460ff16155b611b2c576040517f08c379a000000000000000000000000000000000000000000000000000000000815260040180806020018281038252602e815260200180612f02602e913960400191505060405180910390fd5b60008060019054906101000a900460ff161590508015611b7c576001600060016101000a81548160ff02191690831515021790555060016000806101000a81548160ff0219169083151502179055505b81606560006101000a81548173ffffffffffffffffffffffffffffffffffffffff021916908373ffffffffffffffffffffffffffffffffffffffff160217905550611bc5611df5565b8015611be65760008060016101000a81548160ff0219169083151502179055505b5050565b6000606560009054906101000a900473ffffffffffffffffffffffffffffffffffffffff1673ffffffffffffffffffffffffffffffffffffffff16635190bc53836040518263ffffffff1660e01b8152600401808273ffffffffffffffffffffffffffffffffffffffff16815260200191505060206040518083038186803b158015611c7557600080fd5b505afa158015611c89573d6000803e3d6000fd5b505050506040513d6020811015611c9f57600080fd5b81019080805190602001909291905050509050919050565b600081609760008563ffffffff1663ffffffff1681526020019081526020016000205414905092915050565b600080600080600080600087806020019051810190611d029190612328565b809750819850829950839a50849b50859c50869d5050505050505050919395979092949650565b600083905060005b6020811015611dda57600060018285901c1690506000858360208110611d5357fe5b602002015190506001821415611d995780846040516020018083815260200182815260200192505050604051602081830303815290604052805190602001209350611dcb565b838160405160200180838152602001828152602001925050506040516020818303038152906040528051906020012093505b50508080600101915050611d31565b509392505050565b600080823b905060008111915050919050565b600060019054906101000a900460ff1680611e145750611e13611a91565b5b80611e2a575060008054906101000a900460ff16155b611e7f576040517f08c379a000000000000000000000000000000000000000000000000000000000815260040180806020018281038252602e815260200180612f02602e913960400191505060405180910390fd5b60008060019054906101000a900460ff161590508015611ecf576001600060016101000a81548160ff02191690831515021790555060016000806101000a81548160ff0219169083151502179055505b611ed7611f03565b611edf612001565b8015611f005760008060016101000a81548160ff0219169083151502179055505b50565b600060019054906101000a900460ff1680611f225750611f21611a91565b5b80611f38575060008054906101000a900460ff16155b611f8d576040517f08c379a000000000000000000000000000000000000000000000000000000000815260040180806020018281038252602e815260200180612f02602e913960400191505060405180910390fd5b60008060019054906101000a900460ff161590508015611fdd576001600060016101000a81548160ff02191690831515021790555060016000806101000a81548160ff0219169083151502179055505b8015611ffe5760008060016101000a81548160ff0219169083151502179055505b50565b600060019054906101000a900460ff1680612020575061201f611a91565b5b80612036575060008054906101000a900460ff16155b61208b576040517f08c379a000000000000000000000000000000000000000000000000000000000815260040180806020018281038252602e815260200180612f02602e913960400191505060405180910390fd5b60008060019054906101000a900460ff1615905080156120db576001600060016101000a81548160ff02191690831515021790555060016000806101000a81548160ff0219169083151502179055505b60006120e5611a89565b905080603360006101000a81548173ffffffffffffffffffffffffffffffffffffffff021916908373ffffffffffffffffffffffffffffffffffffffff1602179055508073ffffffffffffffffffffffffffffffffffffffff16600073ffffffffffffffffffffffffffffffffffffffff167f8be0079c531659141344cd1fd0a4f28419497f9722a3daafe3b4186f6b6457e060405160405180910390a35080156121a55760008060016101000a81548160ff0219169083151502179055505b50565b60006121bb6121b684612c84565b612c53565b9050828152602081018484840111156121d357600080fd5b6121de848285612dce565b509392505050565b6000813590506121f581612e23565b92915050565b60008151905061220a81612e3a565b92915050565b600081905082602080028201111561222757600080fd5b92915050565b60008135905061223c81612e51565b92915050565b60008135905061225181612e68565b92915050565b600082601f83011261226857600080fd5b81356122788482602086016121a8565b91505092915050565b60008151905061229081612e7f565b92915050565b6000813590506122a581612e96565b92915050565b6000815190506122ba81612e96565b92915050565b6000813590506122cf81612ead565b92915050565b6000815190506122e481612ead565b92915050565b6000815190506122f981612ec4565b92915050565b60006020828403121561231157600080fd5b600061231f848285016121e6565b91505092915050565b600080600080600080600060e0888a03121561234357600080fd5b60006123518a828b016121fb565b97505060206123628a828b016122d5565b96505060406123738a828b016122d5565b95505060606123848a828b016121fb565b94505060806123958a828b016121fb565b93505060a06123a68a828b016122ab565b92505060c06123b78a828b016122ea565b91505092959891949750929550565b600080604083850312156123d957600080fd5b60006123e7858286016121e6565b92505060206123f8858286016121e6565b9150509250929050565b6000806040838503121561241557600080fd5b6000612423858286016121e6565b925050602061243485828601612296565b9150509250929050565b6000806000806080858703121561245457600080fd5b6000612462878288016121e6565b945050602061247387828801612296565b9350506040612484878288016122c0565b9250506060612495878288016121e6565b91505092959194509250565b600080604083850312156124b457600080fd5b60006124c2858286016121e6565b92505060206124d3858286016122c0565b9150509250929050565b600080600080608085870312156124f357600080fd5b6000612501878288016121e6565b9450506020612512878288016122c0565b9350506040612523878288016121e6565b92505060606125348782880161222d565b91505092959194509250565b6000806000610440848603121561255657600080fd5b600061256486828701612242565b935050602061257586828701612210565b92505061042061258786828701612296565b9150509250925092565b6000602082840312156125a357600080fd5b60006125b184828501612281565b91505092915050565b6000602082840312156125cc57600080fd5b60006125da848285016122c0565b91505092915050565b600080604083850312156125f657600080fd5b6000612604858286016122c0565b9250506020612615858286016121e6565b9150509250929050565b6000806040838503121561263257600080fd5b6000612640858286016122c0565b925050602061265185828601612242565b9150509250929050565b60008060006060848603121561267057600080fd5b600061267e868287016122c0565b935050602061268f86828701612242565b925050604084013567ffffffffffffffff8111156126ac57600080fd5b6126b886828701612257565b9150509250925092565b6126cb81612d74565b82525050565b6126da81612ce1565b82525050565b6126e981612d05565b82525050565b6126f881612d11565b82525050565b600061270982612cb4565b6127138185612cbf565b9350612723818560208601612ddd565b61272c81612e12565b840191505092915050565b61274081612d86565b82525050565b6000612753601383612cd0565b91507f496e76616c696420616374696f6e2074797065000000000000000000000000006000830152602082019050919050565b6000612793601083612cd0565b91507f496e76616c6964206d617070696e672e000000000000000000000000000000006000830152602082019050919050565b60006127d3602083612cd0565b91507f4f6e6c7920746f6b656e206d61707065722063616e206d617020746f6b656e736000830152602082019050919050565b6000612813601083612cd0565b91507f546f6b656e206e6f74206d6170706564000000000000000000000000000000006000830152602082019050919050565b6000612853600e83612cd0565b91507f496e76616c696420646f6d61696e0000000000000000000000000000000000006000830152602082019050919050565b6000612893600683612cd0565b91507f21726563697000000000000000000000000000000000000000000000000000006000830152602082019050919050565b60006128d3601983612cd0565b91507f5265616368656420696e76616c69642d7363656e6172696f2e000000000000006000830152602082019050919050565b61290f81612d4d565b82525050565b61291e81612d57565b82525050565b61292d81612d67565b82525050565b600060208201905061294860008301846126d1565b92915050565b600060608201905061296360008301866126c2565b61297060208301856126d1565b61297d6040830184612906565b949350505050565b600060608201905061299a60008301866126d1565b6129a760208301856126d1565b6129b46040830184612906565b949350505050565b60006040820190506129d160008301856126d1565b6129de6020830184612906565b9392505050565b60006080820190506129fa60008301876126d1565b612a076020830186612915565b612a1460408301856126d1565b612a2160608301846126e0565b95945050505050565b600060e082019050612a3f600083018a6126d1565b612a4c6020830189612915565b612a596040830188612915565b612a6660608301876126d1565b612a7360808301866126d1565b612a8060a0830185612906565b612a8d60c0830184612924565b98975050505050505050565b6000602082019050612aae60008301846126e0565b92915050565b6000602082019050612ac960008301846126ef565b92915050565b6000604082019050612ae460008301856126ef565b8181036020830152612af681846126fe565b90509392505050565b6000602082019050612b146000830184612737565b92915050565b60006020820190508181036000830152612b3381612746565b9050919050565b60006020820190508181036000830152612b5381612786565b9050919050565b60006020820190508181036000830152612b73816127c6565b9050919050565b60006020820190508181036000830152612b9381612806565b9050919050565b60006020820190508181036000830152612bb381612846565b9050919050565b60006020820190508181036000830152612bd381612886565b9050919050565b60006020820190508181036000830152612bf3816128c6565b9050919050565b6000602082019050612c0f6000830184612906565b92915050565b6000606082019050612c2a6000830186612915565b612c3760208301856126ef565b8181036040830152612c4981846126fe565b9050949350505050565b6000604051905081810181811067ffffffffffffffff82111715612c7a57612c79612e10565b5b8060405250919050565b600067ffffffffffffffff821115612c9f57612c9e612e10565b5b601f19601f8301169050602081019050919050565b600081519050919050565b600082825260208201905092915050565b600082825260208201905092915050565b6000612cec82612d2d565b9050919050565b6000612cfe82612d2d565b9050919050565b60008115159050919050565b6000819050919050565b6000612d2682612ce1565b9050919050565b600073ffffffffffffffffffffffffffffffffffffffff82169050919050565b6000819050919050565b600063ffffffff82169050919050565b600060ff82169050919050565b6000612d7f82612daa565b9050919050565b6000612d9182612d98565b9050919050565b6000612da382612d2d565b9050919050565b6000612db582612dbc565b9050919050565b6000612dc782612d2d565b9050919050565b82818337600083830152505050565b60005b83811015612dfb578082015181840152602081019050612de0565b83811115612e0a576000848401525b50505050565bfe5b6000601f19601f8301169050919050565b612e2c81612ce1565b8114612e3757600080fd5b50565b612e4381612cf3565b8114612e4e57600080fd5b50565b612e5a81612d05565b8114612e6557600080fd5b50565b612e7181612d11565b8114612e7c57600080fd5b50565b612e8881612d1b565b8114612e9357600080fd5b50565b612e9f81612d4d565b8114612eaa57600080fd5b50565b612eb681612d57565b8114612ec157600080fd5b50565b612ecd81612d67565b8114612ed857600080fd5b5056fe4f776e61626c653a206e6577206f776e657220697320746865207a65726f2061646472657373496e697469616c697a61626c653a20636f6e747261637420697320616c726561647920696e697469616c697a6564a2646970667358221220efbe090ca5318014849313055ed2da9879bfec09cf798378a6642e05da71ae5c64736f6c63430007060033",
  "linkReferences": {},
  "deployedLinkReferences": {}
}