{
  "address": "0x41b93B9CDD2B8Dd96d9B60d3733a12150Cf18c31",
  "abi": [
    {
      "inputs": [
        {
          "internalType": "uint32",
          "name": "_localDomain",
          "type": "uint32"
        },
        {
          "internalType": "uint256",
          "name": "_processGas",
          "type": "uint256"
        },
        {
          "internalType": "uint256",
          "name": "_reserveGas",
          "type": "uint256"
        }
      ],
      "stateMutability": "nonpayable",
      "type": "constructor"
    },
    {
      "anonymous": false,
      "inputs": [
        {
          "indexed": false,
          "internalType": "bytes32",
          "name": "oldRoot",
          "type": "bytes32"
        },
        {
          "indexed": false,
          "internalType": "bytes32[2]",
          "name": "newRoot",
          "type": "bytes32[2]"
        },
        {
          "indexed": false,
          "internalType": "bytes",
          "name": "signature",
          "type": "bytes"
        },
        {
          "indexed": false,
          "internalType": "bytes",
          "name": "signature2",
          "type": "bytes"
        }
      ],
      "name": "DoubleUpdate",
      "type": "event"
    },
    {
      "anonymous": false,
      "inputs": [
        {
          "indexed": true,
          "internalType": "bytes32",
          "name": "messageHash",
          "type": "bytes32"
        },
        {
          "indexed": true,
          "internalType": "bool",
          "name": "success",
          "type": "bool"
        },
        {
          "indexed": true,
          "internalType": "bytes",
          "name": "returnData",
          "type": "bytes"
        }
      ],
      "name": "Process",
      "type": "event"
    },
    {
      "anonymous": false,
      "inputs": [
        {
          "indexed": true,
          "internalType": "uint32",
          "name": "homeDomain",
          "type": "uint32"
        },
        {
          "indexed": true,
          "internalType": "bytes32",
          "name": "oldRoot",
          "type": "bytes32"
        },
        {
          "indexed": true,
          "internalType": "bytes32",
          "name": "newRoot",
          "type": "bytes32"
        },
        {
          "indexed": false,
          "internalType": "bytes",
          "name": "signature",
          "type": "bytes"
        }
      ],
      "name": "Update",
      "type": "event"
    },
    {
      "inputs": [],
      "name": "PROCESS_GAS",
      "outputs": [
        {
          "internalType": "uint256",
          "name": "",
          "type": "uint256"
        }
      ],
      "stateMutability": "view",
      "type": "function"
    },
    {
      "inputs": [],
      "name": "RESERVE_GAS",
      "outputs": [
        {
          "internalType": "uint256",
          "name": "",
          "type": "uint256"
        }
      ],
      "stateMutability": "view",
      "type": "function"
    },
    {
      "inputs": [],
      "name": "VERSION",
      "outputs": [
        {
          "internalType": "uint8",
          "name": "",
          "type": "uint8"
        }
      ],
      "stateMutability": "view",
      "type": "function"
    },
    {
      "inputs": [
        {
          "internalType": "bytes32",
          "name": "_root",
          "type": "bytes32"
        }
      ],
      "name": "acceptableRoot",
      "outputs": [
        {
          "internalType": "bool",
          "name": "",
          "type": "bool"
        }
      ],
      "stateMutability": "view",
      "type": "function"
    },
    {
      "inputs": [],
      "name": "committedRoot",
      "outputs": [
        {
          "internalType": "bytes32",
          "name": "",
          "type": "bytes32"
        }
      ],
      "stateMutability": "view",
      "type": "function"
    },
    {
      "inputs": [
        {
          "internalType": "bytes32",
          "name": "",
          "type": "bytes32"
        }
      ],
      "name": "confirmAt",
      "outputs": [
        {
          "internalType": "uint256",
          "name": "",
          "type": "uint256"
        }
      ],
      "stateMutability": "view",
      "type": "function"
    },
    {
      "inputs": [
        {
          "internalType": "bytes32",
          "name": "_oldRoot",
          "type": "bytes32"
        },
        {
          "internalType": "bytes32[2]",
          "name": "_newRoot",
          "type": "bytes32[2]"
        },
        {
          "internalType": "bytes",
          "name": "_signature",
          "type": "bytes"
        },
        {
          "internalType": "bytes",
          "name": "_signature2",
          "type": "bytes"
        }
      ],
      "name": "doubleUpdate",
      "outputs": [],
      "stateMutability": "nonpayable",
      "type": "function"
    },
    {
      "inputs": [],
      "name": "homeDomainHash",
      "outputs": [
        {
          "internalType": "bytes32",
          "name": "",
          "type": "bytes32"
        }
      ],
      "stateMutability": "view",
      "type": "function"
    },
    {
      "inputs": [
        {
          "internalType": "uint32",
          "name": "_remoteDomain",
          "type": "uint32"
        },
        {
          "internalType": "address",
          "name": "_updater",
          "type": "address"
        },
        {
          "internalType": "bytes32",
          "name": "_committedRoot",
          "type": "bytes32"
        },
        {
          "internalType": "uint256",
          "name": "_optimisticSeconds",
          "type": "uint256"
        }
      ],
      "name": "initialize",
      "outputs": [],
      "stateMutability": "nonpayable",
      "type": "function"
    },
    {
      "inputs": [],
      "name": "localDomain",
      "outputs": [
        {
          "internalType": "uint32",
          "name": "",
          "type": "uint32"
        }
      ],
      "stateMutability": "view",
      "type": "function"
    },
    {
      "inputs": [
        {
          "internalType": "bytes32",
          "name": "",
          "type": "bytes32"
        }
      ],
      "name": "messages",
      "outputs": [
        {
          "internalType": "enum Replica.MessageStatus",
          "name": "",
          "type": "uint8"
        }
      ],
      "stateMutability": "view",
      "type": "function"
    },
    {
      "inputs": [],
      "name": "optimisticSeconds",
      "outputs": [
        {
          "internalType": "uint256",
          "name": "",
          "type": "uint256"
        }
      ],
      "stateMutability": "view",
      "type": "function"
    },
    {
      "inputs": [
        {
          "internalType": "bytes",
          "name": "_message",
          "type": "bytes"
        }
      ],
      "name": "process",
      "outputs": [
        {
          "internalType": "bool",
          "name": "_success",
          "type": "bool"
        }
      ],
      "stateMutability": "nonpayable",
      "type": "function"
    },
    {
      "inputs": [
        {
          "internalType": "bytes32",
          "name": "_leaf",
          "type": "bytes32"
        },
        {
          "internalType": "bytes32[32]",
          "name": "_proof",
          "type": "bytes32[32]"
        },
        {
          "internalType": "uint256",
          "name": "_index",
          "type": "uint256"
        }
      ],
      "name": "prove",
      "outputs": [
        {
          "internalType": "bool",
          "name": "",
          "type": "bool"
        }
      ],
      "stateMutability": "nonpayable",
      "type": "function"
    },
    {
      "inputs": [
        {
          "internalType": "bytes",
          "name": "_message",
          "type": "bytes"
        },
        {
          "internalType": "bytes32[32]",
          "name": "_proof",
          "type": "bytes32[32]"
        },
        {
          "internalType": "uint256",
          "name": "_index",
          "type": "uint256"
        }
      ],
      "name": "proveAndProcess",
      "outputs": [],
      "stateMutability": "nonpayable",
      "type": "function"
    },
    {
      "inputs": [],
      "name": "remoteDomain",
      "outputs": [
        {
          "internalType": "uint32",
          "name": "",
          "type": "uint32"
        }
      ],
      "stateMutability": "view",
      "type": "function"
    },
    {
      "inputs": [],
      "name": "state",
      "outputs": [
        {
          "internalType": "enum Common.States",
          "name": "",
          "type": "uint8"
        }
      ],
      "stateMutability": "view",
      "type": "function"
    },
    {
      "inputs": [
        {
          "internalType": "bytes32",
          "name": "_oldRoot",
          "type": "bytes32"
        },
        {
          "internalType": "bytes32",
          "name": "_newRoot",
          "type": "bytes32"
        },
        {
          "internalType": "bytes",
          "name": "_signature",
          "type": "bytes"
        }
      ],
      "name": "update",
      "outputs": [],
      "stateMutability": "nonpayable",
      "type": "function"
    },
    {
      "inputs": [],
      "name": "updater",
      "outputs": [
        {
          "internalType": "address",
          "name": "",
          "type": "address"
        }
      ],
      "stateMutability": "view",
      "type": "function"
    }
  ],
  "transactionHash": "0x1a060693604ba950965623c62cf0b66c81246bc6c70fe92bb136fa0f3d928420",
  "args": [
    "1000",
    1000000,
    80000
  ],
  "numDeployments": 1,
  "solcInputHash": "7354dfe7d822b8255d41f920f8763a5d",
  "bytecode": "0x60e060405234801561001057600080fd5b50604051612bf2380380612bf28339818101604052606081101561003357600080fd5b81019080805190602001909291908051906020019092919080519060200190929190505050828063ffffffff1660808163ffffffff1660e01b8152505050620cf8508210156100ea576040517f08c379a000000000000000000000000000000000000000000000000000000000815260040180806020018281038252600c8152602001807f2170726f6365737320676173000000000000000000000000000000000000000081525060200191505060405180910390fd5b613a98811015610162576040517f08c379a000000000000000000000000000000000000000000000000000000000815260040180806020018281038252600c8152602001807f217265736572766520676173000000000000000000000000000000000000000081525060200191505060405180910390fd5b8160a081815250508060c0818152505050505060805160e01c60a05160c051612a3a6101b8600039806109d55280610ec2525080610ee35280610f97528061150a525080610c3e5280610c7b5250612a3a6000f3fe608060405234801561001057600080fd5b50600436106101215760003560e01c80638d3638f4116100ad578063c19d93fb11610071578063c19d93fb14610666578063d88beda21461068f578063df034cd0146106ad578063e7e7a7b7146106e1578063ffa1ad741461074957610121565b80638d3638f41461043a578063928bc4b21461045e578063961681dc1461052f578063a3f81d6814610553578063b31c01fb1461059757610121565b806339992668116100f457806339992668146102cd57806345630b1a146102eb5780636188af0e1461030957806367a6771d146103da57806371bfb7b8146103f857610121565b806319d9d21a1461012657806325e3beda146102085780632bbd59ca14610226578063371d307114610273575b600080fd5b610206600480360360a081101561013c57600080fd5b8101908080359060200190929190806040019091929192908035906020019064010000000081111561016d57600080fd5b82018360208201111561017f57600080fd5b803590602001918460018302840111640100000000831117156101a157600080fd5b9091929391929390803590602001906401000000008111156101c257600080fd5b8201836020820111156101d457600080fd5b803590602001918460018302840111640100000000831117156101f657600080fd5b909192939192939050505061076a565b005b6102106109d3565b6040518082815260200191505060405180910390f35b6102526004803603602081101561023c57600080fd5b81019080803590602001909291905050506109f7565b6040518082600281111561026257fe5b815260200191505060405180910390f35b6102b5600480360361044081101561028a57600080fd5b8101908080359060200190929190806104000190919291929080359060200190929190505050610a17565b60405180821515815260200191505060405180910390f35b6102d5610b63565b6040518082815260200191505060405180910390f35b6102f3610b69565b6040518082815260200191505060405180910390f35b6103d8600480360361044081101561032057600080fd5b810190808035906020019064010000000081111561033d57600080fd5b82018360208201111561034f57600080fd5b8035906020019184600183028401116401000000008311171561037157600080fd5b91908080601f016020809104026020016040519081016040528093929190818152602001838380828437600081840152601f19601f820116905080830192505050505050509192919290806104000190919291929080359060200190929190505050610b8b565b005b6103e2610c1e565b6040518082815260200191505060405180910390f35b6104246004803603602081101561040e57600080fd5b8101908080359060200190929190505050610c24565b6040518082815260200191505060405180910390f35b610442610c3c565b604051808263ffffffff16815260200191505060405180910390f35b6105176004803603602081101561047457600080fd5b810190808035906020019064010000000081111561049157600080fd5b8201836020820111156104a357600080fd5b803590602001918460018302840111640100000000831117156104c557600080fd5b91908080601f016020809104026020016040519081016040528093929190818152602001838380828437600081840152601f19601f820116905080830192505050505050509192919290505050610c60565b60405180821515815260200191505060405180910390f35b610537611230565b604051808263ffffffff16815260200191505060405180910390f35b61057f6004803603602081101561056957600080fd5b8101908080359060200190929190505050611246565b60405180821515815260200191505060405180910390f35b610664600480360360608110156105ad57600080fd5b810190808035906020019092919080359060200190929190803590602001906401000000008111156105de57600080fd5b8201836020820111156105f057600080fd5b8035906020019184600183028401116401000000008311171561061257600080fd5b91908080601f016020809104026020016040519081016040528093929190818152602001838380828437600081840152601f19601f82011690508083019250505050505050919291929050505061127f565b005b61066e6114f5565b6040518082600281111561067e57fe5b815260200191505060405180910390f35b610697611508565b6040518082815260200191505060405180910390f35b6106b561152c565b604051808273ffffffffffffffffffffffffffffffffffffffff16815260200191505060405180910390f35b610747600480360360808110156106f757600080fd5b81019080803563ffffffff169060200190929190803573ffffffffffffffffffffffffffffffffffffffff1690602001909291908035906020019092919080359060200190929190505050611552565b005b6107516116c1565b604051808260ff16815260200191505060405180910390f35b60028081111561077657fe5b600060169054906101000a900460ff16600281111561079157fe5b1415610805576040517f08c379a000000000000000000000000000000000000000000000000000000000815260040180806020018281038252600c8152602001807f6661696c6564207374617465000000000000000000000000000000000000000081525060200191505060405180910390fd5b610865868660006002811061081657fe5b602002013586868080601f016020809104026020016040519081016040528093929190818152602001838380828437600081840152601f19601f820116905080830192505050505050506116c6565b80156108cd57506108cc868660016002811061087d57fe5b602002013584848080601f016020809104026020016040519081016040528093929190818152602001838380828437600081840152601f19601f820116905080830192505050505050506116c6565b5b80156108fb5750846001600281106108e157fe5b6020020135856000600281106108f357fe5b602002013514155b156109cb57610908611778565b7f2c3f60bab4170347826231b75a920b5053941ddebc6eed6fd2c25721648b186f8686868686866040518087815260200186600260200280828437600081840152601f19601f82011690508083019250505080602001806020018381038352878782818152602001925080828437600081840152601f19601f8201169050808301925050508381038252858582818152602001925080828437600081840152601f19601f8201169050808301925050509850505050505050505060405180910390a15b505050505050565b7f000000000000000000000000000000000000000000000000000000000000000081565b60356020528060005260406000206000915054906101000a900460ff1681565b6000806002811115610a2557fe5b6035600086815260200190815260200160002060009054906101000a900460ff166002811115610a5157fe5b14610ac4576040517f08c379a00000000000000000000000000000000000000000000000000000000081526004018080602001828103825260138152602001807f214d6573736167655374617475732e4e6f6e650000000000000000000000000081525060200191505060405180910390fd5b6000610b07858560208060200260405190810160405280929190826020800280828437600081840152601f19601f82011690508083019250505050505085611782565b9050610b1281611246565b15610b565760016035600087815260200190815260200160002060006101000a81548160ff02191690836002811115610b4757fe5b02179055506001915050610b5c565b60009150505b9392505050565b60325481565b6000610b86603160009054906101000a900463ffffffff1661183b565b905090565b610b9d83805190602001208383610a17565b610c0f576040517f08c379a00000000000000000000000000000000000000000000000000000000081526004018080602001828103825260068152602001807f2170726f7665000000000000000000000000000000000000000000000000000081525060200191505060405180910390fd5b610c1883610c60565b50505050565b60015481565b60346020528060005260406000206000915090505481565b7f000000000000000000000000000000000000000000000000000000000000000081565b600080610c7760008461189c90919063ffffffff16565b90507f000000000000000000000000000000000000000000000000000000000000000063ffffffff16610caf8262ffffff19166118c7565b63ffffffff1614610d28576040517f08c379a000000000000000000000000000000000000000000000000000000000815260040180806020018281038252600c8152602001807f2164657374696e6174696f6e000000000000000000000000000000000000000081525060200191505060405180910390fd5b6000610d398262ffffff19166118ed565b905060016002811115610d4857fe5b6035600083815260200190815260200160002060009054906101000a900460ff166002811115610d7457fe5b14610de7576040517f08c379a00000000000000000000000000000000000000000000000000000000081526004018080602001828103825260078152602001807f2170726f76656e0000000000000000000000000000000000000000000000000081525060200191505060405180910390fd5b6001603360009054906101000a900460ff1660ff1614610e6f576040517f08c379a000000000000000000000000000000000000000000000000000000000815260040180806020018281038252600a8152602001807f217265656e7472616e740000000000000000000000000000000000000000000081525060200191505060405180910390fd5b6000603360006101000a81548160ff021916908360ff16021790555060026035600083815260200190815260200160002060006101000a81548160ff02191690836002811115610ebb57fe5b02179055507f00000000000000000000000000000000000000000000000000000000000000007f0000000000000000000000000000000000000000000000000000000000000000015a1015610f78576040517f08c379a00000000000000000000000000000000000000000000000000000000081526004018080602001828103825260048152602001807f216761730000000000000000000000000000000000000000000000000000000081525060200191505060405180910390fd5b6000610f898362ffffff1916611930565b9050600080610100905060007f0000000000000000000000000000000000000000000000000000000000000000905060008267ffffffffffffffff81118015610fd157600080fd5b506040519080825280601f01601f1916602001820160405280156110045781602001600182028036833780820191505090505b50905060006110188862ffffff191661194a565b6110278962ffffff1916611970565b6110446110398b62ffffff1916611996565b62ffffff19166119dc565b604051602401808463ffffffff16815260200183815260200180602001828103825283818151815260200191508051906020019080838360005b8381101561109957808201518184015260208101905061107e565b50505050905090810190601f1680156110c65780820380516001836020036101000a031916815260200191505b509450505050506040516020818303038152906040527f56d5d475000000000000000000000000000000000000000000000000000000007bffffffffffffffffffffffffffffffffffffffffffffffffffffffff19166020820180517bffffffffffffffffffffffffffffffffffffffffffffffffffffffff8381831617835250505050905060008082516020840160008a88f198503d94508385111561116b578394505b848252846000602084013e816040518082805190602001908083835b602083106111aa5780518252602082019150602081019050602083039250611187565b6001836020036101000a0380198251168184511680821785525050505050509050019150506040518091039020891515887fd42de95a9b26f1be134c8ecce389dc4fcfa18753d01661b7b361233569e8fe4860405160405180910390a46001603360006101000a81548160ff021916908360ff1602179055505050505050505050919050565b603160009054906101000a900463ffffffff1681565b60008060346000848152602001908152602001600020549050600081141561127257600091505061127a565b804210159150505b919050565b60028081111561128b57fe5b600060169054906101000a900460ff1660028111156112a657fe5b141561131a576040517f08c379a000000000000000000000000000000000000000000000000000000000815260040180806020018281038252600c8152602001807f6661696c6564207374617465000000000000000000000000000000000000000081525060200191505060405180910390fd5b6001548314611391576040517f08c379a00000000000000000000000000000000000000000000000000000000081526004018080602001828103825260128152602001807f6e6f742063757272656e7420757064617465000000000000000000000000000081525060200191505060405180910390fd5b61139c8383836116c6565b61140e576040517f08c379a000000000000000000000000000000000000000000000000000000000815260040180806020018281038252600c8152602001807f217570646174657220736967000000000000000000000000000000000000000081525060200191505060405180910390fd5b611416611a23565b60325442016034600084815260200190815260200160002081905550816001819055508183603160009054906101000a900463ffffffff1663ffffffff167f608828ad904a0c9250c09004ba7226efb08f35a5c815bb3f76b5a8a271cd08b2846040518080602001828103825283818151815260200191508051906020019080838360005b838110156114b657808201518184015260208101905061149b565b50505050905090810190601f1680156114e35780820380516001836020036101000a031916815260200191505b509250505060405180910390a4505050565b600060169054906101000a900460ff1681565b7f000000000000000000000000000000000000000000000000000000000000000081565b600060029054906101000a900473ffffffffffffffffffffffffffffffffffffffff1681565b600060019054906101000a900460ff16806115715750611570611a25565b5b80611587575060008054906101000a900460ff16155b6115dc576040517f08c379a000000000000000000000000000000000000000000000000000000000815260040180806020018281038252602e8152602001806128f3602e913960400191505060405180910390fd5b60008060019054906101000a900460ff16159050801561162c576001600060016101000a81548160ff02191690831515021790555060016000806101000a81548160ff0219169083151502179055505b61163584611a36565b6001603360006101000a81548160ff021916908360ff16021790555084603160006101000a81548163ffffffff021916908363ffffffff16021790555082600181905550600160346000858152602001908152602001600020819055508160328190555080156116ba5760008060016101000a81548160ff0219169083151502179055505b5050505050565b600081565b6000806116d1610b69565b858560405160200180848152602001838152602001828152602001935050505060405160208183030381529060405280519060200120905061171281611b9a565b9050600060029054906101000a900473ffffffffffffffffffffffffffffffffffffffff1673ffffffffffffffffffffffffffffffffffffffff166117578285611bf2565b73ffffffffffffffffffffffffffffffffffffffff16149150509392505050565b611780611c9f565b565b600083905060005b602081101561183357600060018285901c16905060008583602081106117ac57fe5b6020020151905060018214156117f25780846040516020018083815260200182815260200192505050604051602081830303815290604052805190602001209350611824565b838160405160200180838152602001828152602001925050506040516020818303038152906040528051906020012093505b5050808060010191505061178a565b509392505050565b600081604051602001808263ffffffff1660e01b8152600401807f4f50544943530000000000000000000000000000000000000000000000000000815250600601915050604051602081830303815290604052805190602001209050919050565b6000808351905060006020850190506118bd8464ffffffffff168284611cc5565b9250505092915050565b60006118e6602860048462ffffff1916611d349092919063ffffffff16565b9050919050565b6000806118f983611d59565b6bffffffffffffffffffffffff169050600061191484611d79565b6bffffffffffffffffffffffff16905080822092505050919050565b600061194361193e83611d99565b611dbf565b9050919050565b6000611969600060048462ffffff1916611d349092919063ffffffff16565b9050919050565b600061198f600460208462ffffff1916611dcc9092919063ffffffff16565b9050919050565b60006119d5604c806119ad8562ffffff1916611d79565b6bffffffffffffffffffffffff160360008562ffffff1916611f93909392919063ffffffff16565b9050919050565b60606000806119ea84611d79565b6bffffffffffffffffffffffff1690506040519150819250611a0f846020840161203f565b506020818301016040528082525050919050565b565b6000611a3030612176565b15905090565b600060019054906101000a900460ff1680611a555750611a54611a25565b5b80611a6b575060008054906101000a900460ff16155b611ac0576040517f08c379a000000000000000000000000000000000000000000000000000000000815260040180806020018281038252602e8152602001806128f3602e913960400191505060405180910390fd5b60008060019054906101000a900460ff161590508015611b10576001600060016101000a81548160ff02191690831515021790555060016000806101000a81548160ff0219169083151502179055505b81600060026101000a81548173ffffffffffffffffffffffffffffffffffffffff021916908373ffffffffffffffffffffffffffffffffffffffff1602179055506001600060166101000a81548160ff02191690836002811115611b7057fe5b02179055508015611b965760008060016101000a81548160ff0219169083151502179055505b5050565b60008160405160200180807f19457468657265756d205369676e6564204d6573736167653a0a333200000000815250601c01828152602001915050604051602081830303815290604052805190602001209050919050565b60006041825114611c6b576040517f08c379a000000000000000000000000000000000000000000000000000000000815260040180806020018281038252601f8152602001807f45434453413a20696e76616c6964207369676e6174757265206c656e6774680081525060200191505060405180910390fd5b60008060006020850151925060408501519150606085015160001a9050611c9486828585612189565b935050505092915050565b6002600060166101000a81548160ff02191690836002811115611cbe57fe5b0217905550565b600080611cdb838561238890919063ffffffff16565b9050604051811115611cec57600090505b6000811415611d1e577fffffffffffffffffffffffffffffffffffffffffffffffffffffffffff000000915050611d2d565b611d2985858561240b565b9150505b9392505050565b60006008826020030260ff16611d4b858585611dcc565b60001c901c90509392505050565b6000806bffffffffffffffffffffffff9050808360781c16915050919050565b6000806bffffffffffffffffffffffff9050808360181c16915050919050565b6000611db8602c60208462ffffff1916611dcc9092919063ffffffff16565b9050919050565b60008160001c9050919050565b6000808260ff161415611de4576000801b9050611f8c565b611ded84611d79565b6bffffffffffffffffffffffff16611e118360ff168561238890919063ffffffff16565b1115611ef357611e52611e2385611d59565b6bffffffffffffffffffffffff16611e3a86611d79565b6bffffffffffffffffffffffff16858560ff1661242c565b6040517f08c379a00000000000000000000000000000000000000000000000000000000081526004018080602001828103825283818151815260200191508051906020019080838360005b83811015611eb8578082015181840152602081019050611e9d565b50505050905090810190601f168015611ee55780820380516001836020036101000a031916815260200191505b509250505060405180910390fd5b60208260ff161115611f50576040517f08c379a000000000000000000000000000000000000000000000000000000000815260040180806020018281038252603a815260200180612943603a913960400191505060405180910390fd5b60006008830290506000611f6386611d59565b6bffffffffffffffffffffffff1690506000611f7e83612566565b905080868301511693505050505b9392505050565b600080611f9f86611d59565b6bffffffffffffffffffffffff169050611fb886612595565b611fdd85611fcf888561238890919063ffffffff16565b61238890919063ffffffff16565b111561200c577fffffffffffffffffffffffffffffffffffffffffffffffffffffffffff000000915050612037565b61201f858261238890919063ffffffff16565b90506120338364ffffffffff168286611cc5565b9150505b949350505050565b600061204a836125bf565b61209f576040517f08c379a000000000000000000000000000000000000000000000000000000000815260040180806020018281038252602881526020018061297d6028913960400191505060405180910390fd5b6120a8836125d2565b6120fd576040517f08c379a000000000000000000000000000000000000000000000000000000000815260040180806020018281038252602b8152602001806129a5602b913960400191505060405180910390fd5b600061210884611d79565b6bffffffffffffffffffffffff169050600061212385611d59565b6bffffffffffffffffffffffff16905060006040519050848111156121485760206060fd5b8285848460045afa5061216b61215d87612615565b64ffffffffff16868561240b565b935050505092915050565b600080823b905060008111915050919050565b60007f7fffffffffffffffffffffffffffffff5d576e7357a4501ddfe92f46681b20a08260001c1115612207576040517f08c379a00000000000000000000000000000000000000000000000000000000081526004018080602001828103825260228152602001806128b06022913960400191505060405180910390fd5b601b8460ff16148061221c5750601c8460ff16145b612271576040517f08c379a00000000000000000000000000000000000000000000000000000000081526004018080602001828103825260228152602001806129216022913960400191505060405180910390fd5b600060018686868660405160008152602001604052604051808581526020018460ff1681526020018381526020018281526020019450505050506020604051602081039080840390855afa1580156122cd573d6000803e3d6000fd5b505050602060405103519050600073ffffffffffffffffffffffffffffffffffffffff168173ffffffffffffffffffffffffffffffffffffffff16141561237c576040517f08c379a00000000000000000000000000000000000000000000000000000000081526004018080602001828103825260188152602001807f45434453413a20696e76616c6964207369676e6174757265000000000000000081525060200191505060405180910390fd5b80915050949350505050565b6000818301905082811015612405576040517f08c379a00000000000000000000000000000000000000000000000000000000081526004018080602001828103825260198152602001807f4f766572666c6f7720647572696e67206164646974696f6e2e0000000000000081525060200191505060405180910390fd5b92915050565b600083811760601b905082811760601b905081811760181b90509392505050565b6060600061243986612622565b915050600061244786612622565b915050600061245586612622565b915050600061246386612622565b9150508383838360405160200180806129d0603591396035018565ffffffffffff1660d01b8152600601807f2077697468206c656e6774682030780000000000000000000000000000000000815250600f018465ffffffffffff1660d01b8152600601806128d2602191396021018365ffffffffffff1660d01b8152600601807f2077697468206c656e6774682030780000000000000000000000000000000000815250600f018265ffffffffffff1660d01b8152600601807f2e00000000000000000000000000000000000000000000000000000000000000815250600101945050505050604051602081830303815290604052945050505050949350505050565b60007f8000000000000000000000000000000000000000000000000000000000000000600183031d9050919050565b60006125a082611d79565b6125a983611d59565b016bffffffffffffffffffffffff169050919050565b60006125ca826126ce565b159050919050565b600064ffffffffff6125e383612615565b64ffffffffff1614156125f95760009050612610565b600061260483612595565b90506040518111199150505b919050565b60008160d81c9050919050565b6000806000601f90505b600f8160ff1611156126765760006008820260ff1685901c905061264f81612706565b61ffff168417935060108260ff161461266a57601084901b93505b5060018103905061262c565b506000600f90505b60ff8160ff1610156126c85760006008820260ff1685901c90506126a181612706565b61ffff168317925060008260ff16146126bc57601083901b92505b5060018103905061267e565b50915091565b60007fffffffffffffffffffffffffffffffffffffffffffffffffffffffffff00000062ffffff19168262ffffff1916149050919050565b600061271860048360ff16901c61273f565b60ff168117905060088161ffff16901b90506127338261273f565b60ff1681179050919050565b60008060f08317905060f08160ff16141561275e5760309150506128aa565b60f18160ff1614156127745760319150506128aa565b60f28160ff16141561278a5760329150506128aa565b60f38160ff1614156127a05760339150506128aa565b60f48160ff1614156127b65760349150506128aa565b60f58160ff1614156127cc5760359150506128aa565b60f68160ff1614156127e25760369150506128aa565b60f78160ff1614156127f85760379150506128aa565b60f88160ff16141561280e5760389150506128aa565b60f98160ff1614156128245760399150506128aa565b60fa8160ff16141561283a5760619150506128aa565b60fb8160ff1614156128505760629150506128aa565b60fc8160ff1614156128665760639150506128aa565b60fd8160ff16141561287c5760649150506128aa565b60fe8160ff1614156128925760659150506128aa565b60ff8160ff1614156128a85760669150506128aa565b505b91905056fe45434453413a20696e76616c6964207369676e6174757265202773272076616c75652e20417474656d7074656420746f20696e646578206174206f6666736574203078496e697469616c697a61626c653a20636f6e747261637420697320616c726561647920696e697469616c697a656445434453413a20696e76616c6964207369676e6174757265202776272076616c756554797065644d656d566965772f696e646578202d20417474656d7074656420746f20696e646578206d6f7265207468616e20333220627974657354797065644d656d566965772f636f7079546f202d204e756c6c20706f696e74657220646572656654797065644d656d566965772f636f7079546f202d20496e76616c696420706f696e74657220646572656654797065644d656d566965772f696e646578202d204f76657272616e2074686520766965772e20536c696365206973206174203078a264697066735822122038cc0e7de1037b45fa89858a0f0f3cbae8d13ae9fdc84d69dfaf454156bb7c9064736f6c63430007060033",
  "devdoc": {
    "author": "Celo Labs Inc.",
    "events": {
      "Process(bytes32,bool,bytes)": {
        "params": {
          "messageHash": "Hash of message that failed to process",
          "returnData": "the return data from the external call",
          "success": "TRUE if the call was executed successfully, FALSE if the call reverted"
        }
      }
    },
    "kind": "dev",
    "methods": {
      "acceptableRoot(bytes32)": {
        "params": {
          "_root": "the Merkle root, submitted in an update, to check"
        },
        "returns": {
          "_0": "TRUE iff root has been submitted & timeout has expired"
        }
      },
      "doubleUpdate(bytes32,bytes32[2],bytes,bytes)": {
        "details": "When `fail()` is called on Home, updater is slashed.",
        "params": {
          "_newRoot": "Array containing two conflicting new roots",
          "_oldRoot": "Old root shared between two conflicting updates",
          "_signature": "Signature on `_oldRoot` and `_newRoot`[0]",
          "_signature2": "Signature on `_oldRoot` and `_newRoot`[1]"
        }
      },
      "process(bytes)": {
        "details": "Recipient must implement a `handle` method (refer to IMessageRecipient.sol) Reverts if formatted message's destination domain is not the Replica's domain, if message has not been proven, or if not enough gas is provided for the dispatch transaction.",
        "params": {
          "_message": "Formatted message"
        },
        "returns": {
          "_success": "TRUE iff dispatch transaction succeeded"
        }
      },
      "prove(bytes32,bytes32[32],uint256)": {
        "details": "Reverts if message's MessageStatus != None (i.e. if message was already proven or processed)For convenience, we allow proving against any previous root. This means that witnesses never need to be updated for the new root",
        "params": {
          "_index": "Index of leaf in home's merkle tree",
          "_leaf": "Leaf of message to prove",
          "_proof": "Merkle proof of inclusion for leaf"
        },
        "returns": {
          "_0": "Returns true if proof was valid and `prove` call succeeded*"
        }
      },
      "proveAndProcess(bytes,bytes32[32],uint256)": {
        "details": "Reverts if `prove` call returns false",
        "params": {
          "_index": "Index of leaf in home's merkle tree",
          "_message": "Formatted message (refer to Common.sol Message library)",
          "_proof": "Merkle proof of inclusion for message's leaf"
        }
      },
      "update(bytes32,bytes32,bytes)": {
        "details": "Reverts if update doesn't build off latest committedRoot or if signature is invalid.",
        "params": {
          "_newRoot": "New merkle root",
          "_oldRoot": "Old merkle root",
          "_signature": "Updater's signature on `_oldRoot` and `_newRoot`"
        }
      }
    },
    "title": "Replica",
    "version": 1
  },
  "userdoc": {
    "events": {
      "DoubleUpdate(bytes32,bytes32[2],bytes,bytes)": {
        "notice": "Emitted when proof of a double update is submitted, which sets the contract to FAILED state"
      },
      "Process(bytes32,bool,bytes)": {
        "notice": "Emitted when message is processed"
      },
      "Update(uint32,bytes32,bytes32,bytes)": {
        "notice": "Emitted when update is made on Home or unconfirmed update root is submitted on Replica"
      }
    },
    "kind": "user",
    "methods": {
      "acceptableRoot(bytes32)": {
        "notice": "Check that the root has been submitted and that the optimistic timeout period has expired, meaning the root can be processed"
      },
      "doubleUpdate(bytes32,bytes32[2],bytes,bytes)": {
        "notice": "Called by external agent. Checks that signatures on two sets of roots are valid and that the new roots conflict with each other. If both cases hold true, the contract is failed and a `DoubleUpdate` event is emitted."
      },
      "homeDomainHash()": {
        "notice": "Hash of Home domain concatenated with \"OPTICS\""
      },
      "process(bytes)": {
        "notice": "Given formatted message, attempts to dispatch message payload to end recipient."
      },
      "prove(bytes32,bytes32[32],uint256)": {
        "notice": "Attempts to prove the validity of message given its leaf, the merkle proof of inclusion for the leaf, and the index of the leaf."
      },
      "proveAndProcess(bytes,bytes32[32],uint256)": {
        "notice": "First attempts to prove the validity of provided formatted `message`. If the message is successfully proven, then tries to process message."
      },
      "update(bytes32,bytes32,bytes)": {
        "notice": "Called by external agent. Submits the signed update's new root, marks root's allowable confirmation time, and emits an `Update` event."
      }
    },
    "notice": "Track root updates on Home, prove and dispatch messages to end recipients.",
    "version": 1
  },
  "storageLayout": {
    "storage": [
      {
        "astId": 3210,
        "contract": "@celo-org/optics-sol/contracts/Replica.sol:Replica",
        "label": "_initialized",
        "offset": 0,
        "slot": "0",
        "type": "t_bool"
      },
      {
        "astId": 3213,
        "contract": "@celo-org/optics-sol/contracts/Replica.sol:Replica",
        "label": "_initializing",
        "offset": 1,
        "slot": "0",
        "type": "t_bool"
      },
      {
        "astId": 18,
        "contract": "@celo-org/optics-sol/contracts/Replica.sol:Replica",
        "label": "updater",
        "offset": 2,
        "slot": "0",
        "type": "t_address"
      },
      {
        "astId": 20,
        "contract": "@celo-org/optics-sol/contracts/Replica.sol:Replica",
        "label": "state",
        "offset": 22,
        "slot": "0",
        "type": "t_enum(States)14"
      },
      {
        "astId": 22,
        "contract": "@celo-org/optics-sol/contracts/Replica.sol:Replica",
        "label": "committedRoot",
        "offset": 0,
        "slot": "1",
        "type": "t_bytes32"
      },
      {
        "astId": 26,
        "contract": "@celo-org/optics-sol/contracts/Replica.sol:Replica",
        "label": "__GAP",
        "offset": 0,
        "slot": "2",
        "type": "t_array(t_uint256)47_storage"
      },
      {
        "astId": 860,
        "contract": "@celo-org/optics-sol/contracts/Replica.sol:Replica",
        "label": "remoteDomain",
        "offset": 0,
        "slot": "49",
        "type": "t_uint32"
      },
      {
        "astId": 862,
        "contract": "@celo-org/optics-sol/contracts/Replica.sol:Replica",
        "label": "optimisticSeconds",
        "offset": 0,
        "slot": "50",
        "type": "t_uint256"
      },
      {
        "astId": 864,
        "contract": "@celo-org/optics-sol/contracts/Replica.sol:Replica",
        "label": "entered",
        "offset": 0,
        "slot": "51",
        "type": "t_uint8"
      },
      {
        "astId": 868,
        "contract": "@celo-org/optics-sol/contracts/Replica.sol:Replica",
        "label": "confirmAt",
        "offset": 0,
        "slot": "52",
        "type": "t_mapping(t_bytes32,t_uint256)"
      },
      {
        "astId": 872,
        "contract": "@celo-org/optics-sol/contracts/Replica.sol:Replica",
        "label": "messages",
        "offset": 0,
        "slot": "53",
        "type": "t_mapping(t_bytes32,t_enum(MessageStatus)854)"
      },
      {
        "astId": 876,
        "contract": "@celo-org/optics-sol/contracts/Replica.sol:Replica",
        "label": "__GAP",
        "offset": 0,
        "slot": "54",
        "type": "t_array(t_uint256)44_storage"
      }
    ],
    "types": {
      "t_address": {
        "encoding": "inplace",
        "label": "address",
        "numberOfBytes": "20"
      },
      "t_array(t_uint256)44_storage": {
        "base": "t_uint256",
        "encoding": "inplace",
        "label": "uint256[44]",
        "numberOfBytes": "1408"
      },
      "t_array(t_uint256)47_storage": {
        "base": "t_uint256",
        "encoding": "inplace",
        "label": "uint256[47]",
        "numberOfBytes": "1504"
      },
      "t_bool": {
        "encoding": "inplace",
        "label": "bool",
        "numberOfBytes": "1"
      },
      "t_bytes32": {
        "encoding": "inplace",
        "label": "bytes32",
        "numberOfBytes": "32"
      },
      "t_enum(MessageStatus)854": {
        "encoding": "inplace",
        "label": "enum Replica.MessageStatus",
        "numberOfBytes": "1"
      },
      "t_enum(States)14": {
        "encoding": "inplace",
        "label": "enum Common.States",
        "numberOfBytes": "1"
      },
      "t_mapping(t_bytes32,t_enum(MessageStatus)854)": {
        "encoding": "mapping",
        "key": "t_bytes32",
        "label": "mapping(bytes32 => enum Replica.MessageStatus)",
        "numberOfBytes": "32",
        "value": "t_enum(MessageStatus)854"
      },
      "t_mapping(t_bytes32,t_uint256)": {
        "encoding": "mapping",
        "key": "t_bytes32",
        "label": "mapping(bytes32 => uint256)",
        "numberOfBytes": "32",
        "value": "t_uint256"
      },
      "t_uint256": {
        "encoding": "inplace",
        "label": "uint256",
        "numberOfBytes": "32"
      },
      "t_uint32": {
        "encoding": "inplace",
        "label": "uint32",
        "numberOfBytes": "4"
      },
      "t_uint8": {
        "encoding": "inplace",
        "label": "uint8",
        "numberOfBytes": "1"
      }
    }
  }
}