{
  "address": "0x379a056cb617ede30c56afb54e2f318505806760",
  "abi": [
    {
      "anonymous": false,
      "inputs": [
        {
          "indexed": false,
          "internalType": "address",
          "name": "localToken",
          "type": "address"
        },
        {
          "indexed": false,
          "internalType": "uint32",
          "name": "domain",
          "type": "uint32"
        },
        {
          "indexed": false,
          "internalType": "address",
          "name": "remoteToken",
          "type": "address"
        },
        {
          "indexed": false,
          "internalType": "bool",
          "name": "isNative",
          "type": "bool"
        }
      ],
      "name": "MapTokens",
      "type": "event"
    },
    {
      "anonymous": false,
      "inputs": [
        {
          "indexed": true,
          "internalType": "address",
          "name": "previousOwner",
          "type": "address"
        },
        {
          "indexed": true,
          "internalType": "address",
          "name": "newOwner",
          "type": "address"
        }
      ],
      "name": "OwnershipTransferred",
      "type": "event"
    },
    {
      "inputs": [
        {
          "internalType": "uint32",
          "name": "_domain",
          "type": "uint32"
        },
        {
          "internalType": "bytes32",
          "name": "_router",
          "type": "bytes32"
        }
      ],
      "name": "enrollRemoteRouter",
      "outputs": [],
      "stateMutability": "nonpayable",
      "type": "function"
    },
    {
      "inputs": [
        {
          "internalType": "uint32",
          "name": "_domain",
          "type": "uint32"
        },
        {
          "internalType": "address",
          "name": "_router",
          "type": "address"
        }
      ],
      "name": "enrollRemoteRouterByAddress",
      "outputs": [],
      "stateMutability": "nonpayable",
      "type": "function"
    },
    {
      "inputs": [
        {
          "internalType": "uint32",
          "name": "_origin",
          "type": "uint32"
        },
        {
          "internalType": "bytes32",
          "name": "_sender",
          "type": "bytes32"
        },
        {
          "internalType": "bytes",
          "name": "_message",
          "type": "bytes"
        }
      ],
      "name": "handle",
      "outputs": [],
      "stateMutability": "nonpayable",
      "type": "function"
    },
    {
      "inputs": [
        {
          "internalType": "address",
          "name": "_xAppConnectionManager",
          "type": "address"
        },
        {
          "internalType": "address",
          "name": "__tokenMapper",
          "type": "address"
        }
      ],
      "name": "initialize",
      "outputs": [],
      "stateMutability": "nonpayable",
      "type": "function"
    },
    {
      "inputs": [
        {
          "internalType": "address",
          "name": "",
          "type": "address"
        }
      ],
      "name": "localTokenData",
      "outputs": [
        {
          "internalType": "bool",
          "name": "isNative",
          "type": "bool"
        }
      ],
      "stateMutability": "view",
      "type": "function"
    },
    {
      "inputs": [
        {
          "internalType": "address",
          "name": "localToken",
          "type": "address"
        },
        {
          "internalType": "uint32",
          "name": "domain",
          "type": "uint32"
        },
        {
          "internalType": "address",
          "name": "remoteToken",
          "type": "address"
        },
        {
          "internalType": "bool",
          "name": "isNative",
          "type": "bool"
        }
      ],
      "name": "mapTokens",
      "outputs": [],
      "stateMutability": "nonpayable",
      "type": "function"
    },
    {
      "inputs": [],
      "name": "owner",
      "outputs": [
        {
          "internalType": "address",
          "name": "",
          "type": "address"
        }
      ],
      "stateMutability": "view",
      "type": "function"
    },
    {
      "inputs": [
        {
          "internalType": "address",
          "name": "",
          "type": "address"
        },
        {
          "internalType": "uint32",
          "name": "",
          "type": "uint32"
        }
      ],
      "name": "remoteTokenIds",
      "outputs": [
        {
          "internalType": "address",
          "name": "",
          "type": "address"
        }
      ],
      "stateMutability": "view",
      "type": "function"
    },
    {
      "inputs": [
        {
          "internalType": "uint32",
          "name": "",
          "type": "uint32"
        }
      ],
      "name": "remotes",
      "outputs": [
        {
          "internalType": "bytes32",
          "name": "",
          "type": "bytes32"
        }
      ],
      "stateMutability": "view",
      "type": "function"
    },
    {
      "inputs": [],
      "name": "renounceOwnership",
      "outputs": [],
      "stateMutability": "nonpayable",
      "type": "function"
    },
    {
      "inputs": [
        {
          "internalType": "address",
          "name": "_token",
          "type": "address"
        },
        {
          "internalType": "uint256",
          "name": "_tokenId",
          "type": "uint256"
        },
        {
          "internalType": "uint32",
          "name": "_domain",
          "type": "uint32"
        },
        {
          "internalType": "address",
          "name": "_recipient",
          "type": "address"
        }
      ],
      "name": "send",
      "outputs": [],
      "stateMutability": "nonpayable",
      "type": "function"
    },
    {
      "inputs": [
        {
          "internalType": "address",
          "name": "__tokenMapper",
          "type": "address"
        }
      ],
      "name": "setTokenMapper",
      "outputs": [],
      "stateMutability": "nonpayable",
      "type": "function"
    },
    {
      "inputs": [
        {
          "internalType": "address",
          "name": "_xAppConnectionManager",
          "type": "address"
        }
      ],
      "name": "setXAppConnectionManager",
      "outputs": [],
      "stateMutability": "nonpayable",
      "type": "function"
    },
    {
      "inputs": [
        {
          "internalType": "address",
          "name": "newOwner",
          "type": "address"
        }
      ],
      "name": "transferOwnership",
      "outputs": [],
      "stateMutability": "nonpayable",
      "type": "function"
    },
    {
      "inputs": [],
      "name": "xAppConnectionManager",
      "outputs": [
        {
          "internalType": "contract XAppConnectionManager",
          "name": "",
          "type": "address"
        }
      ],
      "stateMutability": "view",
      "type": "function"
    }
  ],
  "transactionHash": "0x05634eca9e22c3938108c1fe9108e03e0794cbed83570a5fcdaeabc6a4b608c8",
  "args": [],
  "numDeployments": 1,
  "solcInputHash": "2e523016a755247f73ddd54b6e2c6f98",
  "bytecode": "0x608060405234801561001057600080fd5b50612c5f806100206000396000f3fe608060405234801561001057600080fd5b50600436106100f55760003560e01c806383bbb80611610097578063afed432e11610066578063afed432e14610234578063b49c53a714610264578063dbb7d9d114610280578063f2fde38b146102b0576100f5565b806383bbb806146101ae5780638da5cb5b146101de578063979dfa7f146101fc578063a288b46314610218576100f5565b8063458a26a9116100d3578063458a26a914610150578063485cc9551461016c57806356d5d47514610188578063715018a6146101a4576100f5565b8063163c4f79146100fa5780633339df961461011657806341bdc8b514610134575b600080fd5b610114600480360381019061010f91906121b9565b6102cc565b005b61011e610716565b60405161012b91906127f9565b60405180910390f35b61014e600480360381019061014991906120b6565b61073c565b005b61016a60048036038101906101659190612258565b61082f565b005b6101866004803603810190610181919061217d565b610a01565b005b6101a2600480360381019061019d9190612385565b610b4b565b005b6101ac6110db565b005b6101c860048036038101906101c391906122e4565b61124b565b6040516101d591906127de565b60405180910390f35b6101e6611263565b6040516101f3919061265d565b60405180910390f35b6102166004803603810190610211919061230d565b61128d565b005b610232600480360381019061022d91906120b6565b611363565b005b61024e6004803603810190610249919061221c565b611456565b60405161025b919061265d565b60405180910390f35b61027e60048036038101906102799190612349565b611498565b005b61029a600480360381019061029591906120b6565b61156f565b6040516102a791906127c3565b60405180910390f35b6102ca60048036038101906102c591906120b6565b61159a565b005b600073ffffffffffffffffffffffffffffffffffffffff168173ffffffffffffffffffffffffffffffffffffffff16141561033c576040517f08c379a0000000000000000000000000000000000000000000000000000000008152600401610333906128b4565b60405180910390fd5b60006103478361178f565b9050600060cb60008773ffffffffffffffffffffffffffffffffffffffff1673ffffffffffffffffffffffffffffffffffffffff16815260200190815260200160002060008563ffffffff1663ffffffff16815260200190815260200160002060009054906101000a900473ffffffffffffffffffffffffffffffffffffffff169050600073ffffffffffffffffffffffffffffffffffffffff168173ffffffffffffffffffffffffffffffffffffffff16141561043a576040517f08c379a000000000000000000000000000000000000000000000000000000000815260040161043190612874565b60405180910390fd5b60008690508073ffffffffffffffffffffffffffffffffffffffff166323b872dd3330896040518463ffffffff1660e01b815260040161047c93929190612678565b600060405180830381600087803b15801561049657600080fd5b505af11580156104aa573d6000803e3d6000fd5b5050505060ca60008873ffffffffffffffffffffffffffffffffffffffff1673ffffffffffffffffffffffffffffffffffffffff16815260200190815260200160002060000160009054906101000a900460ff16610572578673ffffffffffffffffffffffffffffffffffffffff1663bc4627ad876040518263ffffffff1660e01b815260040161053b91906128f4565b600060405180830381600087803b15801561055557600080fd5b505af1158015610569573d6000803e3d6000fd5b505050506105df565b600160ca60008973ffffffffffffffffffffffffffffffffffffffff1673ffffffffffffffffffffffffffffffffffffffff168152602001908152602001600020600101600088815260200190815260200160002060006101000a81548160ff0219169083151502179055505b606560009054906101000a900473ffffffffffffffffffffffffffffffffffffffff1673ffffffffffffffffffffffffffffffffffffffff16639fa92f9d6040518163ffffffff1660e01b815260040160206040518083038186803b15801561064757600080fd5b505afa15801561065b573d6000803e3d6000fd5b505050506040513d601f19601f8201168201806040525081019061067f91906122bb565b73ffffffffffffffffffffffffffffffffffffffff1663fa31de0186856106bd8b6106a8611831565b8b898c8f6001808111156106b857fe5b6118db565b6040518463ffffffff1660e01b81526004016106db9392919061290f565b600060405180830381600087803b1580156106f557600080fd5b505af1158015610709573d6000803e3d6000fd5b5050505050505050505050565b606560009054906101000a900473ffffffffffffffffffffffffffffffffffffffff1681565b610744611916565b73ffffffffffffffffffffffffffffffffffffffff16610762611263565b73ffffffffffffffffffffffffffffffffffffffff16146107eb576040517f08c379a00000000000000000000000000000000000000000000000000000000081526004018080602001828103825260208152602001807f4f776e61626c653a2063616c6c6572206973206e6f7420746865206f776e657281525060200191505060405180910390fd5b80606560006101000a81548173ffffffffffffffffffffffffffffffffffffffff021916908373ffffffffffffffffffffffffffffffffffffffff16021790555050565b60c960009054906101000a900473ffffffffffffffffffffffffffffffffffffffff1673ffffffffffffffffffffffffffffffffffffffff163373ffffffffffffffffffffffffffffffffffffffff16146108bf576040517f08c379a00000000000000000000000000000000000000000000000000000000081526004016108b690612854565b60405180910390fd5b6108c88361178f565b508160cb60008673ffffffffffffffffffffffffffffffffffffffff1673ffffffffffffffffffffffffffffffffffffffff16815260200190815260200160002060008563ffffffff1663ffffffff16815260200190815260200160002060006101000a81548173ffffffffffffffffffffffffffffffffffffffff021916908373ffffffffffffffffffffffffffffffffffffffff1602179055508060ca60008673ffffffffffffffffffffffffffffffffffffffff1673ffffffffffffffffffffffffffffffffffffffff16815260200190815260200160002060000160006101000a81548160ff0219169083151502179055507f8b7e3e84d3d3e74cc7f6c3c54c45fb1d7ab98b70a870fd038251e4ecf0655b23848484846040516109f3949392919061270f565b60405180910390a150505050565b600060019054906101000a900460ff1680610a205750610a1f61191e565b5b80610a36575060008054906101000a900460ff16155b610a8b576040517f08c379a000000000000000000000000000000000000000000000000000000000815260040180806020018281038252602e815260200180612bfc602e913960400191505060405180910390fd5b60008060019054906101000a900460ff161590508015610adb576001600060016101000a81548160ff02191690831515021790555060016000806101000a81548160ff0219169083151502179055505b610ae48361192f565b8160c960006101000a81548173ffffffffffffffffffffffffffffffffffffffff021916908373ffffffffffffffffffffffffffffffffffffffff1602179055508015610b465760008060016101000a81548160ff0219169083151502179055505b505050565b610b5433611a77565b610bc6576040517f08c379a00000000000000000000000000000000000000000000000000000000081526004018080602001828103825260088152602001807f217265706c69636100000000000000000000000000000000000000000000000081525060200191505060405180910390fd5b8282610bd28282611b44565b610c44576040517f08c379a000000000000000000000000000000000000000000000000000000000815260040180806020018281038252600e8152602001807f2172656d6f746520726f7574657200000000000000000000000000000000000081525060200191505060405180910390fd5b6000806000806000806000610c588a611b70565b965096509650965096509650965060006001811115610c7357fe5b8160ff166001811115610c8257fe5b6001811115610c8d57fe5b1415610cce576040517f08c379a0000000000000000000000000000000000000000000000000000000008152600401610cc590612814565b60405180910390fd5b610cd6611831565b63ffffffff168563ffffffff1614610d23576040517f08c379a0000000000000000000000000000000000000000000000000000000008152600401610d1a90612894565b60405180910390fd5b8673ffffffffffffffffffffffffffffffffffffffff1660cb60008673ffffffffffffffffffffffffffffffffffffffff1673ffffffffffffffffffffffffffffffffffffffff16815260200190815260200160002060008863ffffffff1663ffffffff16815260200190815260200160002060009054906101000a900473ffffffffffffffffffffffffffffffffffffffff1673ffffffffffffffffffffffffffffffffffffffff1614610e0d576040517f08c379a0000000000000000000000000000000000000000000000000000000008152600401610e0490612834565b60405180910390fd5b60ca60008573ffffffffffffffffffffffffffffffffffffffff1673ffffffffffffffffffffffffffffffffffffffff16815260200190815260200160002060000160009054906101000a900460ff168015610ec6575060ca60008573ffffffffffffffffffffffffffffffffffffffff1673ffffffffffffffffffffffffffffffffffffffff168152602001908152602001600020600101600083815260200190815260200160002060009054906101000a900460ff165b15610fb85760008490508073ffffffffffffffffffffffffffffffffffffffff166323b872dd3086866040518463ffffffff1660e01b8152600401610f0d939291906126af565b600060405180830381600087803b158015610f2757600080fd5b505af1158015610f3b573d6000803e3d6000fd5b50505050600060ca60008773ffffffffffffffffffffffffffffffffffffffff1673ffffffffffffffffffffffffffffffffffffffff168152602001908152602001600020600101600085815260200190815260200160002060006101000a81548160ff02191690831515021790555050505050505050506110d4565b60ca60008573ffffffffffffffffffffffffffffffffffffffff1673ffffffffffffffffffffffffffffffffffffffff16815260200190815260200160002060000160009054906101000a900460ff1661108b5760008490508073ffffffffffffffffffffffffffffffffffffffff166359e238d685856040518363ffffffff1660e01b815260040161104c9291906126e6565b600060405180830381600087803b15801561106657600080fd5b505af115801561107a573d6000803e3d6000fd5b5050505050505050505050506110d4565b60006110cc576040517f08c379a00000000000000000000000000000000000000000000000000000000081526004016110c3906128d4565b60405180910390fd5b505050505050505b5050505050565b6110e3611916565b73ffffffffffffffffffffffffffffffffffffffff16611101611263565b73ffffffffffffffffffffffffffffffffffffffff161461118a576040517f08c379a00000000000000000000000000000000000000000000000000000000081526004018080602001828103825260208152602001807f4f776e61626c653a2063616c6c6572206973206e6f7420746865206f776e657281525060200191505060405180910390fd5b600073ffffffffffffffffffffffffffffffffffffffff16603360009054906101000a900473ffffffffffffffffffffffffffffffffffffffff1673ffffffffffffffffffffffffffffffffffffffff167f8be0079c531659141344cd1fd0a4f28419497f9722a3daafe3b4186f6b6457e060405160405180910390a36000603360006101000a81548173ffffffffffffffffffffffffffffffffffffffff021916908373ffffffffffffffffffffffffffffffffffffffff160217905550565b60976020528060005260406000206000915090505481565b6000603360009054906101000a900473ffffffffffffffffffffffffffffffffffffffff16905090565b611295611916565b73ffffffffffffffffffffffffffffffffffffffff166112b3611263565b73ffffffffffffffffffffffffffffffffffffffff161461133c576040517f08c379a00000000000000000000000000000000000000000000000000000000081526004018080602001828103825260208152602001807f4f776e61626c653a2063616c6c6572206973206e6f7420746865206f776e657281525060200191505060405180910390fd5b61135f828273ffffffffffffffffffffffffffffffffffffffff1660001b611498565b5050565b61136b611916565b73ffffffffffffffffffffffffffffffffffffffff16611389611263565b73ffffffffffffffffffffffffffffffffffffffff1614611412576040517f08c379a00000000000000000000000000000000000000000000000000000000081526004018080602001828103825260208152602001807f4f776e61626c653a2063616c6c6572206973206e6f7420746865206f776e657281525060200191505060405180910390fd5b8060c960006101000a81548173ffffffffffffffffffffffffffffffffffffffff021916908373ffffffffffffffffffffffffffffffffffffffff16021790555050565b60cb6020528160005260406000206020528060005260406000206000915091509054906101000a900473ffffffffffffffffffffffffffffffffffffffff1681565b6114a0611916565b73ffffffffffffffffffffffffffffffffffffffff166114be611263565b73ffffffffffffffffffffffffffffffffffffffff1614611547576040517f08c379a00000000000000000000000000000000000000000000000000000000081526004018080602001828103825260208152602001807f4f776e61626c653a2063616c6c6572206973206e6f7420746865206f776e657281525060200191505060405180910390fd5b80609760008463ffffffff1663ffffffff168152602001908152602001600020819055505050565b60ca6020528060005260406000206000915090508060000160009054906101000a900460ff16905081565b6115a2611916565b73ffffffffffffffffffffffffffffffffffffffff166115c0611263565b73ffffffffffffffffffffffffffffffffffffffff1614611649576040517f08c379a00000000000000000000000000000000000000000000000000000000081526004018080602001828103825260208152602001807f4f776e61626c653a2063616c6c6572206973206e6f7420746865206f776e657281525060200191505060405180910390fd5b600073ffffffffffffffffffffffffffffffffffffffff168173ffffffffffffffffffffffffffffffffffffffff1614156116cf576040517f08c379a0000000000000000000000000000000000000000000000000000000008152600401808060200182810382526026815260200180612bd66026913960400191505060405180910390fd5b8073ffffffffffffffffffffffffffffffffffffffff16603360009054906101000a900473ffffffffffffffffffffffffffffffffffffffff1673ffffffffffffffffffffffffffffffffffffffff167f8be0079c531659141344cd1fd0a4f28419497f9722a3daafe3b4186f6b6457e060405160405180910390a380603360006101000a81548173ffffffffffffffffffffffffffffffffffffffff021916908373ffffffffffffffffffffffffffffffffffffffff16021790555050565b6000609760008363ffffffff1663ffffffff1681526020019081526020016000205490506000801b81141561182c576040517f08c379a00000000000000000000000000000000000000000000000000000000081526004018080602001828103825260078152602001807f2172656d6f74650000000000000000000000000000000000000000000000000081525060200191505060405180910390fd5b919050565b6000606560009054906101000a900473ffffffffffffffffffffffffffffffffffffffff1673ffffffffffffffffffffffffffffffffffffffff16638d3638f46040518163ffffffff1660e01b815260040160206040518083038186803b15801561189b57600080fd5b505afa1580156118af573d6000803e3d6000fd5b505050506040513d60208110156118c557600080fd5b8101908080519060200190929190505050905090565b6060878787878787876040516020016118fa9796959493929190612754565b6040516020818303038152906040529050979650505050505050565b600033905090565b600061192930611bb6565b15905090565b600060019054906101000a900460ff168061194e575061194d61191e565b5b80611964575060008054906101000a900460ff16155b6119b9576040517f08c379a000000000000000000000000000000000000000000000000000000000815260040180806020018281038252602e815260200180612bfc602e913960400191505060405180910390fd5b60008060019054906101000a900460ff161590508015611a09576001600060016101000a81548160ff02191690831515021790555060016000806101000a81548160ff0219169083151502179055505b81606560006101000a81548173ffffffffffffffffffffffffffffffffffffffff021916908373ffffffffffffffffffffffffffffffffffffffff160217905550611a52611bc9565b8015611a735760008060016101000a81548160ff0219169083151502179055505b5050565b6000606560009054906101000a900473ffffffffffffffffffffffffffffffffffffffff1673ffffffffffffffffffffffffffffffffffffffff16635190bc53836040518263ffffffff1660e01b8152600401808273ffffffffffffffffffffffffffffffffffffffff16815260200191505060206040518083038186803b158015611b0257600080fd5b505afa158015611b16573d6000803e3d6000fd5b505050506040513d6020811015611b2c57600080fd5b81019080805190602001909291905050509050919050565b600081609760008563ffffffff1663ffffffff1681526020019081526020016000205414905092915050565b600080600080600080600087806020019051810190611b8f91906120df565b809750819850829950839a50849b50859c50869d5050505050505050919395979092949650565b600080823b905060008111915050919050565b600060019054906101000a900460ff1680611be85750611be761191e565b5b80611bfe575060008054906101000a900460ff16155b611c53576040517f08c379a000000000000000000000000000000000000000000000000000000000815260040180806020018281038252602e815260200180612bfc602e913960400191505060405180910390fd5b60008060019054906101000a900460ff161590508015611ca3576001600060016101000a81548160ff02191690831515021790555060016000806101000a81548160ff0219169083151502179055505b611cab611cd7565b611cb3611dd5565b8015611cd45760008060016101000a81548160ff0219169083151502179055505b50565b600060019054906101000a900460ff1680611cf65750611cf561191e565b5b80611d0c575060008054906101000a900460ff16155b611d61576040517f08c379a000000000000000000000000000000000000000000000000000000000815260040180806020018281038252602e815260200180612bfc602e913960400191505060405180910390fd5b60008060019054906101000a900460ff161590508015611db1576001600060016101000a81548160ff02191690831515021790555060016000806101000a81548160ff0219169083151502179055505b8015611dd25760008060016101000a81548160ff0219169083151502179055505b50565b600060019054906101000a900460ff1680611df45750611df361191e565b5b80611e0a575060008054906101000a900460ff16155b611e5f576040517f08c379a000000000000000000000000000000000000000000000000000000000815260040180806020018281038252602e815260200180612bfc602e913960400191505060405180910390fd5b60008060019054906101000a900460ff161590508015611eaf576001600060016101000a81548160ff02191690831515021790555060016000806101000a81548160ff0219169083151502179055505b6000611eb9611916565b905080603360006101000a81548173ffffffffffffffffffffffffffffffffffffffff021916908373ffffffffffffffffffffffffffffffffffffffff1602179055508073ffffffffffffffffffffffffffffffffffffffff16600073ffffffffffffffffffffffffffffffffffffffff167f8be0079c531659141344cd1fd0a4f28419497f9722a3daafe3b4186f6b6457e060405160405180910390a3508015611f795760008060016101000a81548160ff0219169083151502179055505b50565b6000611f8f611f8a8461297e565b61294d565b905082815260208101848484011115611fa757600080fd5b611fb2848285612ac8565b509392505050565b600081359050611fc981612b1d565b92915050565b600081519050611fde81612b34565b92915050565b600081359050611ff381612b4b565b92915050565b60008135905061200881612b62565b92915050565b600082601f83011261201f57600080fd5b813561202f848260208601611f7c565b91505092915050565b60008151905061204781612b79565b92915050565b60008135905061205c81612b90565b92915050565b60008151905061207181612b90565b92915050565b60008135905061208681612ba7565b92915050565b60008151905061209b81612ba7565b92915050565b6000815190506120b081612bbe565b92915050565b6000602082840312156120c857600080fd5b60006120d684828501611fba565b91505092915050565b600080600080600080600060e0888a0312156120fa57600080fd5b60006121088a828b01611fcf565b97505060206121198a828b0161208c565b965050604061212a8a828b0161208c565b955050606061213b8a828b01611fcf565b945050608061214c8a828b01611fcf565b93505060a061215d8a828b01612062565b92505060c061216e8a828b016120a1565b91505092959891949750929550565b6000806040838503121561219057600080fd5b600061219e85828601611fba565b92505060206121af85828601611fba565b9150509250929050565b600080600080608085870312156121cf57600080fd5b60006121dd87828801611fba565b94505060206121ee8782880161204d565b93505060406121ff87828801612077565b925050606061221087828801611fba565b91505092959194509250565b6000806040838503121561222f57600080fd5b600061223d85828601611fba565b925050602061224e85828601612077565b9150509250929050565b6000806000806080858703121561226e57600080fd5b600061227c87828801611fba565b945050602061228d87828801612077565b935050604061229e87828801611fba565b92505060606122af87828801611fe4565b91505092959194509250565b6000602082840312156122cd57600080fd5b60006122db84828501612038565b91505092915050565b6000602082840312156122f657600080fd5b600061230484828501612077565b91505092915050565b6000806040838503121561232057600080fd5b600061232e85828601612077565b925050602061233f85828601611fba565b9150509250929050565b6000806040838503121561235c57600080fd5b600061236a85828601612077565b925050602061237b85828601611ff9565b9150509250929050565b60008060006060848603121561239a57600080fd5b60006123a886828701612077565b93505060206123b986828701611ff9565b925050604084013567ffffffffffffffff8111156123d657600080fd5b6123e28682870161200e565b9150509250925092565b6123f581612a6e565b82525050565b612404816129db565b82525050565b612413816129ff565b82525050565b61242281612a0b565b82525050565b6000612433826129ae565b61243d81856129b9565b935061244d818560208601612ad7565b61245681612b0c565b840191505092915050565b61246a81612a80565b82525050565b600061247d6013836129ca565b91507f496e76616c696420616374696f6e2074797065000000000000000000000000006000830152602082019050919050565b60006124bd6010836129ca565b91507f496e76616c6964206d617070696e672e000000000000000000000000000000006000830152602082019050919050565b60006124fd6020836129ca565b91507f4f6e6c7920746f6b656e206d61707065722063616e206d617020746f6b656e736000830152602082019050919050565b600061253d6010836129ca565b91507f546f6b656e206e6f74206d6170706564000000000000000000000000000000006000830152602082019050919050565b600061257d600e836129ca565b91507f496e76616c696420646f6d61696e0000000000000000000000000000000000006000830152602082019050919050565b60006125bd6006836129ca565b91507f21726563697000000000000000000000000000000000000000000000000000006000830152602082019050919050565b60006125fd6019836129ca565b91507f5265616368656420696e76616c69642d7363656e6172696f2e000000000000006000830152602082019050919050565b61263981612a47565b82525050565b61264881612a51565b82525050565b61265781612a61565b82525050565b600060208201905061267260008301846123fb565b92915050565b600060608201905061268d60008301866123ec565b61269a60208301856123fb565b6126a76040830184612630565b949350505050565b60006060820190506126c460008301866123fb565b6126d160208301856123fb565b6126de6040830184612630565b949350505050565b60006040820190506126fb60008301856123fb565b6127086020830184612630565b9392505050565b600060808201905061272460008301876123fb565b612731602083018661263f565b61273e60408301856123fb565b61274b606083018461240a565b95945050505050565b600060e082019050612769600083018a6123fb565b612776602083018961263f565b612783604083018861263f565b61279060608301876123fb565b61279d60808301866123fb565b6127aa60a0830185612630565b6127b760c083018461264e565b98975050505050505050565b60006020820190506127d8600083018461240a565b92915050565b60006020820190506127f36000830184612419565b92915050565b600060208201905061280e6000830184612461565b92915050565b6000602082019050818103600083015261282d81612470565b9050919050565b6000602082019050818103600083015261284d816124b0565b9050919050565b6000602082019050818103600083015261286d816124f0565b9050919050565b6000602082019050818103600083015261288d81612530565b9050919050565b600060208201905081810360008301526128ad81612570565b9050919050565b600060208201905081810360008301526128cd816125b0565b9050919050565b600060208201905081810360008301526128ed816125f0565b9050919050565b60006020820190506129096000830184612630565b92915050565b6000606082019050612924600083018661263f565b6129316020830185612419565b81810360408301526129438184612428565b9050949350505050565b6000604051905081810181811067ffffffffffffffff8211171561297457612973612b0a565b5b8060405250919050565b600067ffffffffffffffff82111561299957612998612b0a565b5b601f19601f8301169050602081019050919050565b600081519050919050565b600082825260208201905092915050565b600082825260208201905092915050565b60006129e682612a27565b9050919050565b60006129f882612a27565b9050919050565b60008115159050919050565b6000819050919050565b6000612a20826129db565b9050919050565b600073ffffffffffffffffffffffffffffffffffffffff82169050919050565b6000819050919050565b600063ffffffff82169050919050565b600060ff82169050919050565b6000612a7982612aa4565b9050919050565b6000612a8b82612a92565b9050919050565b6000612a9d82612a27565b9050919050565b6000612aaf82612ab6565b9050919050565b6000612ac182612a27565b9050919050565b82818337600083830152505050565b60005b83811015612af5578082015181840152602081019050612ada565b83811115612b04576000848401525b50505050565bfe5b6000601f19601f8301169050919050565b612b26816129db565b8114612b3157600080fd5b50565b612b3d816129ed565b8114612b4857600080fd5b50565b612b54816129ff565b8114612b5f57600080fd5b50565b612b6b81612a0b565b8114612b7657600080fd5b50565b612b8281612a15565b8114612b8d57600080fd5b50565b612b9981612a47565b8114612ba457600080fd5b50565b612bb081612a51565b8114612bbb57600080fd5b50565b612bc781612a61565b8114612bd257600080fd5b5056fe4f776e61626c653a206e6577206f776e657220697320746865207a65726f2061646472657373496e697469616c697a61626c653a20636f6e747261637420697320616c726561647920696e697469616c697a6564a2646970667358221220041db5ccfdbe7cc3ac6e2a9d0108e6089b07db8fdd26b4975b28c909532087ac64736f6c63430007060033",
  "devdoc": {
    "kind": "dev",
    "methods": {
      "enrollRemoteRouter(uint32,bytes32)": {
        "params": {
          "_domain": "The domain of the remote xApp Router",
          "_router": "The address of the remote xApp Router"
        }
      },
      "owner()": {
        "details": "Returns the address of the current owner."
      },
      "renounceOwnership()": {
        "details": "Leaves the contract without owner. It will not be possible to call `onlyOwner` functions anymore. Can only be called by the current owner. NOTE: Renouncing ownership will leave the contract without an owner, thereby removing any functionality that is only available to the owner."
      },
      "send(address,uint256,uint32,address)": {
        "params": {
          "_domain": "The destination domain",
          "_recipient": "The recipient address",
          "_token": "The token address",
          "_tokenId": "The token amount"
        }
      },
      "setXAppConnectionManager(address)": {
        "params": {
          "_xAppConnectionManager": "The address of the xAppConnectionManager contract"
        }
      },
      "transferOwnership(address)": {
        "details": "Transfers ownership of the contract to a new account (`newOwner`). Can only be called by the current owner."
      }
    },
    "version": 1
  },
  "userdoc": {
    "kind": "user",
    "methods": {
      "enrollRemoteRouter(uint32,bytes32)": {
        "notice": "Register the address of a Router contract for the same xApp on a remote chain"
      },
      "send(address,uint256,uint32,address)": {
        "notice": "Send tokens to a recipient on a remote chain"
      },
      "setXAppConnectionManager(address)": {
        "notice": "Modify the contract the xApp uses to validate Replica contracts"
      }
    },
    "version": 1
  },
  "storageLayout": {
    "storage": [
      {
        "astId": 3086,
        "contract": "contracts/nft/ERC721Router.sol:ERC721Router",
        "label": "_initialized",
        "offset": 0,
        "slot": "0",
        "type": "t_bool"
      },
      {
        "astId": 3089,
        "contract": "contracts/nft/ERC721Router.sol:ERC721Router",
        "label": "_initializing",
        "offset": 1,
        "slot": "0",
        "type": "t_bool"
      },
      {
        "astId": 3433,
        "contract": "contracts/nft/ERC721Router.sol:ERC721Router",
        "label": "__gap",
        "offset": 0,
        "slot": "1",
        "type": "t_array(t_uint256)50_storage"
      },
      {
        "astId": 2959,
        "contract": "contracts/nft/ERC721Router.sol:ERC721Router",
        "label": "_owner",
        "offset": 0,
        "slot": "51",
        "type": "t_address"
      },
      {
        "astId": 3078,
        "contract": "contracts/nft/ERC721Router.sol:ERC721Router",
        "label": "__gap",
        "offset": 0,
        "slot": "52",
        "type": "t_array(t_uint256)49_storage"
      },
      {
        "astId": 8348,
        "contract": "contracts/nft/ERC721Router.sol:ERC721Router",
        "label": "xAppConnectionManager",
        "offset": 0,
        "slot": "101",
        "type": "t_contract(XAppConnectionManager)1625"
      },
      {
        "astId": 8352,
        "contract": "contracts/nft/ERC721Router.sol:ERC721Router",
        "label": "__GAP",
        "offset": 0,
        "slot": "102",
        "type": "t_array(t_uint256)49_storage"
      },
      {
        "astId": 8245,
        "contract": "contracts/nft/ERC721Router.sol:ERC721Router",
        "label": "remotes",
        "offset": 0,
        "slot": "151",
        "type": "t_mapping(t_uint32,t_bytes32)"
      },
      {
        "astId": 8249,
        "contract": "contracts/nft/ERC721Router.sol:ERC721Router",
        "label": "__GAP",
        "offset": 0,
        "slot": "152",
        "type": "t_array(t_uint256)49_storage"
      },
      {
        "astId": 8542,
        "contract": "contracts/nft/ERC721Router.sol:ERC721Router",
        "label": "_tokenMapper",
        "offset": 0,
        "slot": "201",
        "type": "t_address"
      },
      {
        "astId": 8553,
        "contract": "contracts/nft/ERC721Router.sol:ERC721Router",
        "label": "localTokenData",
        "offset": 0,
        "slot": "202",
        "type": "t_mapping(t_address,t_struct(LocalTokenData)8549_storage)"
      },
      {
        "astId": 8559,
        "contract": "contracts/nft/ERC721Router.sol:ERC721Router",
        "label": "remoteTokenIds",
        "offset": 0,
        "slot": "203",
        "type": "t_mapping(t_address,t_mapping(t_uint32,t_address))"
      },
      {
        "astId": 8563,
        "contract": "contracts/nft/ERC721Router.sol:ERC721Router",
        "label": "__GAP",
        "offset": 0,
        "slot": "204",
        "type": "t_array(t_uint256)49_storage"
      }
    ],
    "types": {
      "t_address": {
        "encoding": "inplace",
        "label": "address",
        "numberOfBytes": "20"
      },
      "t_array(t_uint256)49_storage": {
        "base": "t_uint256",
        "encoding": "inplace",
        "label": "uint256[49]",
        "numberOfBytes": "1568"
      },
      "t_array(t_uint256)50_storage": {
        "base": "t_uint256",
        "encoding": "inplace",
        "label": "uint256[50]",
        "numberOfBytes": "1600"
      },
      "t_bool": {
        "encoding": "inplace",
        "label": "bool",
        "numberOfBytes": "1"
      },
      "t_bytes32": {
        "encoding": "inplace",
        "label": "bytes32",
        "numberOfBytes": "32"
      },
      "t_contract(XAppConnectionManager)1625": {
        "encoding": "inplace",
        "label": "contract XAppConnectionManager",
        "numberOfBytes": "20"
      },
      "t_mapping(t_address,t_mapping(t_uint32,t_address))": {
        "encoding": "mapping",
        "key": "t_address",
        "label": "mapping(address => mapping(uint32 => address))",
        "numberOfBytes": "32",
        "value": "t_mapping(t_uint32,t_address)"
      },
      "t_mapping(t_address,t_struct(LocalTokenData)8549_storage)": {
        "encoding": "mapping",
        "key": "t_address",
        "label": "mapping(address => struct ERC721Router.LocalTokenData)",
        "numberOfBytes": "32",
        "value": "t_struct(LocalTokenData)8549_storage"
      },
      "t_mapping(t_uint256,t_bool)": {
        "encoding": "mapping",
        "key": "t_uint256",
        "label": "mapping(uint256 => bool)",
        "numberOfBytes": "32",
        "value": "t_bool"
      },
      "t_mapping(t_uint32,t_address)": {
        "encoding": "mapping",
        "key": "t_uint32",
        "label": "mapping(uint32 => address)",
        "numberOfBytes": "32",
        "value": "t_address"
      },
      "t_mapping(t_uint32,t_bytes32)": {
        "encoding": "mapping",
        "key": "t_uint32",
        "label": "mapping(uint32 => bytes32)",
        "numberOfBytes": "32",
        "value": "t_bytes32"
      },
      "t_struct(LocalTokenData)8549_storage": {
        "encoding": "inplace",
        "label": "struct ERC721Router.LocalTokenData",
        "members": [
          {
            "astId": 8544,
            "contract": "contracts/nft/ERC721Router.sol:ERC721Router",
            "label": "isNative",
            "offset": 0,
            "slot": "0",
            "type": "t_bool"
          },
          {
            "astId": 8548,
            "contract": "contracts/nft/ERC721Router.sol:ERC721Router",
            "label": "isTransferred",
            "offset": 0,
            "slot": "1",
            "type": "t_mapping(t_uint256,t_bool)"
          }
        ],
        "numberOfBytes": "64"
      },
      "t_uint256": {
        "encoding": "inplace",
        "label": "uint256",
        "numberOfBytes": "32"
      },
      "t_uint32": {
        "encoding": "inplace",
        "label": "uint32",
        "numberOfBytes": "4"
      }
    }
  }
}