{
  "address": "0x46eac96530178a4F4877861b72C610D1bE822167",
  "abi": [
    {
      "inputs": [
        {
          "internalType": "uint32",
          "name": "_localDomain",
          "type": "uint32"
        }
      ],
      "stateMutability": "nonpayable",
      "type": "constructor"
    },
    {
      "anonymous": false,
      "inputs": [
        {
          "indexed": true,
          "internalType": "bytes32",
          "name": "messageHash",
          "type": "bytes32"
        },
        {
          "indexed": true,
          "internalType": "uint256",
          "name": "leafIndex",
          "type": "uint256"
        },
        {
          "indexed": true,
          "internalType": "uint64",
          "name": "destinationAndNonce",
          "type": "uint64"
        },
        {
          "indexed": false,
          "internalType": "bytes32",
          "name": "committedRoot",
          "type": "bytes32"
        },
        {
          "indexed": false,
          "internalType": "bytes",
          "name": "message",
          "type": "bytes"
        }
      ],
      "name": "Dispatch",
      "type": "event"
    },
    {
      "anonymous": false,
      "inputs": [
        {
          "indexed": false,
          "internalType": "bytes32",
          "name": "oldRoot",
          "type": "bytes32"
        },
        {
          "indexed": false,
          "internalType": "bytes32[2]",
          "name": "newRoot",
          "type": "bytes32[2]"
        },
        {
          "indexed": false,
          "internalType": "bytes",
          "name": "signature",
          "type": "bytes"
        },
        {
          "indexed": false,
          "internalType": "bytes",
          "name": "signature2",
          "type": "bytes"
        }
      ],
      "name": "DoubleUpdate",
      "type": "event"
    },
    {
      "anonymous": false,
      "inputs": [
        {
          "indexed": false,
          "internalType": "bytes32",
          "name": "oldRoot",
          "type": "bytes32"
        },
        {
          "indexed": false,
          "internalType": "bytes32",
          "name": "newRoot",
          "type": "bytes32"
        },
        {
          "indexed": false,
          "internalType": "bytes",
          "name": "signature",
          "type": "bytes"
        }
      ],
      "name": "ImproperUpdate",
      "type": "event"
    },
    {
      "anonymous": false,
      "inputs": [
        {
          "indexed": false,
          "internalType": "address",
          "name": "updater",
          "type": "address"
        }
      ],
      "name": "NewUpdater",
      "type": "event"
    },
    {
      "anonymous": false,
      "inputs": [
        {
          "indexed": false,
          "internalType": "address",
          "name": "updaterManager",
          "type": "address"
        }
      ],
      "name": "NewUpdaterManager",
      "type": "event"
    },
    {
      "anonymous": false,
      "inputs": [
        {
          "indexed": true,
          "internalType": "address",
          "name": "previousOwner",
          "type": "address"
        },
        {
          "indexed": true,
          "internalType": "address",
          "name": "newOwner",
          "type": "address"
        }
      ],
      "name": "OwnershipTransferred",
      "type": "event"
    },
    {
      "anonymous": false,
      "inputs": [
        {
          "indexed": true,
          "internalType": "uint32",
          "name": "homeDomain",
          "type": "uint32"
        },
        {
          "indexed": true,
          "internalType": "bytes32",
          "name": "oldRoot",
          "type": "bytes32"
        },
        {
          "indexed": true,
          "internalType": "bytes32",
          "name": "newRoot",
          "type": "bytes32"
        },
        {
          "indexed": false,
          "internalType": "bytes",
          "name": "signature",
          "type": "bytes"
        }
      ],
      "name": "Update",
      "type": "event"
    },
    {
      "anonymous": false,
      "inputs": [
        {
          "indexed": true,
          "internalType": "address",
          "name": "updater",
          "type": "address"
        },
        {
          "indexed": true,
          "internalType": "address",
          "name": "reporter",
          "type": "address"
        }
      ],
      "name": "UpdaterSlashed",
      "type": "event"
    },
    {
      "inputs": [],
      "name": "MAX_MESSAGE_BODY_BYTES",
      "outputs": [
        {
          "internalType": "uint256",
          "name": "",
          "type": "uint256"
        }
      ],
      "stateMutability": "view",
      "type": "function"
    },
    {
      "inputs": [],
      "name": "VERSION",
      "outputs": [
        {
          "internalType": "uint8",
          "name": "",
          "type": "uint8"
        }
      ],
      "stateMutability": "view",
      "type": "function"
    },
    {
      "inputs": [],
      "name": "committedRoot",
      "outputs": [
        {
          "internalType": "bytes32",
          "name": "",
          "type": "bytes32"
        }
      ],
      "stateMutability": "view",
      "type": "function"
    },
    {
      "inputs": [],
      "name": "count",
      "outputs": [
        {
          "internalType": "uint256",
          "name": "",
          "type": "uint256"
        }
      ],
      "stateMutability": "view",
      "type": "function"
    },
    {
      "inputs": [
        {
          "internalType": "uint32",
          "name": "_destinationDomain",
          "type": "uint32"
        },
        {
          "internalType": "bytes32",
          "name": "_recipientAddress",
          "type": "bytes32"
        },
        {
          "internalType": "bytes",
          "name": "_messageBody",
          "type": "bytes"
        }
      ],
      "name": "dispatch",
      "outputs": [],
      "stateMutability": "nonpayable",
      "type": "function"
    },
    {
      "inputs": [
        {
          "internalType": "bytes32",
          "name": "_oldRoot",
          "type": "bytes32"
        },
        {
          "internalType": "bytes32[2]",
          "name": "_newRoot",
          "type": "bytes32[2]"
        },
        {
          "internalType": "bytes",
          "name": "_signature",
          "type": "bytes"
        },
        {
          "internalType": "bytes",
          "name": "_signature2",
          "type": "bytes"
        }
      ],
      "name": "doubleUpdate",
      "outputs": [],
      "stateMutability": "nonpayable",
      "type": "function"
    },
    {
      "inputs": [],
      "name": "homeDomainHash",
      "outputs": [
        {
          "internalType": "bytes32",
          "name": "",
          "type": "bytes32"
        }
      ],
      "stateMutability": "view",
      "type": "function"
    },
    {
      "inputs": [
        {
          "internalType": "bytes32",
          "name": "_oldRoot",
          "type": "bytes32"
        },
        {
          "internalType": "bytes32",
          "name": "_newRoot",
          "type": "bytes32"
        },
        {
          "internalType": "bytes",
          "name": "_signature",
          "type": "bytes"
        }
      ],
      "name": "improperUpdate",
      "outputs": [
        {
          "internalType": "bool",
          "name": "",
          "type": "bool"
        }
      ],
      "stateMutability": "nonpayable",
      "type": "function"
    },
    {
      "inputs": [
        {
          "internalType": "contract IUpdaterManager",
          "name": "_updaterManager",
          "type": "address"
        }
      ],
      "name": "initialize",
      "outputs": [],
      "stateMutability": "nonpayable",
      "type": "function"
    },
    {
      "inputs": [],
      "name": "localDomain",
      "outputs": [
        {
          "internalType": "uint32",
          "name": "",
          "type": "uint32"
        }
      ],
      "stateMutability": "view",
      "type": "function"
    },
    {
      "inputs": [
        {
          "internalType": "uint32",
          "name": "",
          "type": "uint32"
        }
      ],
      "name": "nonces",
      "outputs": [
        {
          "internalType": "uint32",
          "name": "",
          "type": "uint32"
        }
      ],
      "stateMutability": "view",
      "type": "function"
    },
    {
      "inputs": [],
      "name": "owner",
      "outputs": [
        {
          "internalType": "address",
          "name": "",
          "type": "address"
        }
      ],
      "stateMutability": "view",
      "type": "function"
    },
    {
      "inputs": [
        {
          "internalType": "bytes32",
          "name": "_item",
          "type": "bytes32"
        }
      ],
      "name": "queueContains",
      "outputs": [
        {
          "internalType": "bool",
          "name": "",
          "type": "bool"
        }
      ],
      "stateMutability": "view",
      "type": "function"
    },
    {
      "inputs": [],
      "name": "queueEnd",
      "outputs": [
        {
          "internalType": "bytes32",
          "name": "",
          "type": "bytes32"
        }
      ],
      "stateMutability": "view",
      "type": "function"
    },
    {
      "inputs": [],
      "name": "queueLength",
      "outputs": [
        {
          "internalType": "uint256",
          "name": "",
          "type": "uint256"
        }
      ],
      "stateMutability": "view",
      "type": "function"
    },
    {
      "inputs": [],
      "name": "renounceOwnership",
      "outputs": [],
      "stateMutability": "nonpayable",
      "type": "function"
    },
    {
      "inputs": [],
      "name": "root",
      "outputs": [
        {
          "internalType": "bytes32",
          "name": "",
          "type": "bytes32"
        }
      ],
      "stateMutability": "view",
      "type": "function"
    },
    {
      "inputs": [
        {
          "internalType": "address",
          "name": "_updater",
          "type": "address"
        }
      ],
      "name": "setUpdater",
      "outputs": [],
      "stateMutability": "nonpayable",
      "type": "function"
    },
    {
      "inputs": [
        {
          "internalType": "address",
          "name": "_updaterManager",
          "type": "address"
        }
      ],
      "name": "setUpdaterManager",
      "outputs": [],
      "stateMutability": "nonpayable",
      "type": "function"
    },
    {
      "inputs": [],
      "name": "state",
      "outputs": [
        {
          "internalType": "enum Common.States",
          "name": "",
          "type": "uint8"
        }
      ],
      "stateMutability": "view",
      "type": "function"
    },
    {
      "inputs": [],
      "name": "suggestUpdate",
      "outputs": [
        {
          "internalType": "bytes32",
          "name": "_committedRoot",
          "type": "bytes32"
        },
        {
          "internalType": "bytes32",
          "name": "_new",
          "type": "bytes32"
        }
      ],
      "stateMutability": "view",
      "type": "function"
    },
    {
      "inputs": [
        {
          "internalType": "address",
          "name": "newOwner",
          "type": "address"
        }
      ],
      "name": "transferOwnership",
      "outputs": [],
      "stateMutability": "nonpayable",
      "type": "function"
    },
    {
      "inputs": [],
      "name": "tree",
      "outputs": [
        {
          "internalType": "uint256",
          "name": "count",
          "type": "uint256"
        }
      ],
      "stateMutability": "view",
      "type": "function"
    },
    {
      "inputs": [
        {
          "internalType": "bytes32",
          "name": "_committedRoot",
          "type": "bytes32"
        },
        {
          "internalType": "bytes32",
          "name": "_newRoot",
          "type": "bytes32"
        },
        {
          "internalType": "bytes",
          "name": "_signature",
          "type": "bytes"
        }
      ],
      "name": "update",
      "outputs": [],
      "stateMutability": "nonpayable",
      "type": "function"
    },
    {
      "inputs": [],
      "name": "updater",
      "outputs": [
        {
          "internalType": "address",
          "name": "",
          "type": "address"
        }
      ],
      "stateMutability": "view",
      "type": "function"
    },
    {
      "inputs": [],
      "name": "updaterManager",
      "outputs": [
        {
          "internalType": "contract IUpdaterManager",
          "name": "",
          "type": "address"
        }
      ],
      "stateMutability": "view",
      "type": "function"
    }
  ],
  "transactionHash": "0x06bde615122655d3604131591165b5c341e58f22f36a5cc93561329f893586f0",
  "args": [
    "3000"
  ],
  "numDeployments": 1,
  "solcInputHash": "7354dfe7d822b8255d41f920f8763a5d",
  "bytecode": "0x60a060405234801561001057600080fd5b506040516137993803806137998339818101604052602081101561003357600080fd5b8101908080519060200190929190505050808063ffffffff1660808163ffffffff1660e01b81525050505060805160e01c61370f61008a60003980610b8d5280610d34528061129a528061197e525061370f6000f3fe608060405234801561001057600080fd5b506004361061018e5760003560e01c80639df6c8e1116100de578063df034cd011610097578063f6d1610211610071578063f6d1610214610797578063fa31de01146107b5578063fd54b2281461088a578063ffa1ad74146108a85761018e565b8063df034cd014610701578063ebf0c71714610735578063f2fde38b146107535761018e565b80639df6c8e114610525578063ab91c7b014610559578063b31c01fb14610577578063b95a200114610646578063c19d93fb14610694578063c4d66de8146106bd5761018e565b806367a6771d1161014b5780638da5cb5b116101255780638da5cb5b146103845780638e4e30e0146103b85780639776120e1461049d5780639d54f419146104e15761018e565b806367a6771d14610338578063715018a6146103565780638d3638f4146103605761018e565b806306661abd1461019357806319d9d21a146101b15780632bef28921461029357806336e104de146102d757806345630b1a146102fc578063522ae0021461031a575b600080fd5b61019b6108c9565b6040518082815260200191505060405180910390f35b610291600480360360a08110156101c757600080fd5b810190808035906020019092919080604001909192919290803590602001906401000000008111156101f857600080fd5b82018360208201111561020a57600080fd5b8035906020019184600183028401116401000000008311171561022c57600080fd5b90919293919293908035906020019064010000000081111561024d57600080fd5b82018360208201111561025f57600080fd5b8035906020019184600183028401116401000000008311171561028157600080fd5b90919293919293905050506108d6565b005b6102bf600480360360208110156102a957600080fd5b8101908080359060200190929190505050610b3f565b60405180821515815260200191505060405180910390f35b6102df610b5c565b604051808381526020018281526020019250505060405180910390f35b610304610b86565b6040518082815260200191505060405180910390f35b610322610bb6565b6040518082815260200191505060405180910390f35b610340610bbc565b6040518082815260200191505060405180910390f35b61035e610bc2565b005b610368610d32565b604051808263ffffffff16815260200191505060405180910390f35b61038c610d56565b604051808273ffffffffffffffffffffffffffffffffffffffff16815260200191505060405180910390f35b610485600480360360608110156103ce57600080fd5b810190808035906020019092919080359060200190929190803590602001906401000000008111156103ff57600080fd5b82018360208201111561041157600080fd5b8035906020019184600183028401116401000000008311171561043357600080fd5b91908080601f016020809104026020016040519081016040528093929190818152602001838380828437600081840152601f19601f820116905080830192505050505050509192919290505050610d80565b60405180821515815260200191505060405180910390f35b6104df600480360360208110156104b357600080fd5b81019080803573ffffffffffffffffffffffffffffffffffffffff169060200190929190505050610ff2565b005b610523600480360360208110156104f757600080fd5b81019080803573ffffffffffffffffffffffffffffffffffffffff1690602001909291905050506110ad565b005b61052d61117d565b604051808273ffffffffffffffffffffffffffffffffffffffff16815260200191505060405180910390f35b6105616111a4565b6040518082815260200191505060405180910390f35b6106446004803603606081101561058d57600080fd5b810190808035906020019092919080359060200190929190803590602001906401000000008111156105be57600080fd5b8201836020820111156105d057600080fd5b803590602001918460018302840111640100000000831117156105f257600080fd5b91908080601f016020809104026020016040519081016040528093929190818152602001838380828437600081840152601f19601f8201169050808301925050505050505091929192905050506111b5565b005b6106786004803603602081101561065c57600080fd5b81019080803563ffffffff169060200190929190505050611361565b604051808263ffffffff16815260200191505060405180910390f35b61069c611385565b604051808260028111156106ac57fe5b815260200191505060405180910390f35b6106ff600480360360208110156106d357600080fd5b81019080803573ffffffffffffffffffffffffffffffffffffffff169060200190929190505050611398565b005b6107096115af565b604051808273ffffffffffffffffffffffffffffffffffffffff16815260200191505060405180910390f35b61073d6115d5565b6040518082815260200191505060405180910390f35b6107956004803603602081101561076957600080fd5b81019080803573ffffffffffffffffffffffffffffffffffffffff1690602001909291905050506115e6565b005b61079f6117db565b6040518082815260200191505060405180910390f35b610888600480360360608110156107cb57600080fd5b81019080803563ffffffff169060200190929190803590602001909291908035906020019064010000000081111561080257600080fd5b82018360208201111561081457600080fd5b8035906020019184600183028401116401000000008311171561083657600080fd5b91908080601f016020809104026020016040519081016040528093929190818152602001838380828437600081840152601f19601f8201169050808301925050505050505091929192905050506117ec565b005b610892611acc565b6040518082815260200191505060405180910390f35b6108b0611ad8565b604051808260ff16815260200191505060405180910390f35b6000603460200154905090565b6002808111156108e257fe5b608660149054906101000a900460ff1660028111156108fd57fe5b1415610971576040517f08c379a000000000000000000000000000000000000000000000000000000000815260040180806020018281038252600c8152602001807f6661696c6564207374617465000000000000000000000000000000000000000081525060200191505060405180910390fd5b6109d1868660006002811061098257fe5b602002013586868080601f016020809104026020016040519081016040528093929190818152602001838380828437600081840152601f19601f82011690508083019250505050505050611add565b8015610a395750610a3886866001600281106109e957fe5b602002013584848080601f016020809104026020016040519081016040528093929190818152602001838380828437600081840152601f19601f82011690508083019250505050505050611add565b5b8015610a67575084600160028110610a4d57fe5b602002013585600060028110610a5f57fe5b602002013514155b15610b3757610a74611b8f565b7f2c3f60bab4170347826231b75a920b5053941ddebc6eed6fd2c25721648b186f8686868686866040518087815260200186600260200280828437600081840152601f19601f82011690508083019250505080602001806020018381038352878782818152602001925080828437600081840152601f19601f8201169050808301925050508381038252858582818152602001925080828437600081840152601f19601f8201169050808301925050509850505050505050505060405180910390a15b505050505050565b6000610b55826001611cb990919063ffffffff16565b9050919050565b6000806000610b6b6001611d6b565b14610b82576087549150610b7f6001611dc9565b90505b9091565b6000610bb17f0000000000000000000000000000000000000000000000000000000000000000611e1a565b905090565b61080081565b60875481565b610bca611e7b565b73ffffffffffffffffffffffffffffffffffffffff16610be8610d56565b73ffffffffffffffffffffffffffffffffffffffff1614610c71576040517f08c379a00000000000000000000000000000000000000000000000000000000081526004018080602001828103825260208152602001807f4f776e61626c653a2063616c6c6572206973206e6f7420746865206f776e657281525060200191505060405180910390fd5b600073ffffffffffffffffffffffffffffffffffffffff1660e960009054906101000a900473ffffffffffffffffffffffffffffffffffffffff1673ffffffffffffffffffffffffffffffffffffffff167f8be0079c531659141344cd1fd0a4f28419497f9722a3daafe3b4186f6b6457e060405160405180910390a3600060e960006101000a81548173ffffffffffffffffffffffffffffffffffffffff021916908373ffffffffffffffffffffffffffffffffffffffff160217905550565b7f000000000000000000000000000000000000000000000000000000000000000081565b600060e960009054906101000a900473ffffffffffffffffffffffffffffffffffffffff16905090565b6000600280811115610d8e57fe5b608660149054906101000a900460ff166002811115610da957fe5b1415610e1d576040517f08c379a000000000000000000000000000000000000000000000000000000000815260040180806020018281038252600c8152602001807f6661696c6564207374617465000000000000000000000000000000000000000081525060200191505060405180910390fd5b610e28848484611add565b610e9a576040517f08c379a000000000000000000000000000000000000000000000000000000000815260040180806020018281038252600c8152602001807f217570646174657220736967000000000000000000000000000000000000000081525060200191505060405180910390fd5b6087548414610f11576040517f08c379a00000000000000000000000000000000000000000000000000000000081526004018080602001828103825260148152602001807f6e6f7420612063757272656e742075706461746500000000000000000000000081525060200191505060405180910390fd5b610f25836001611cb990919063ffffffff16565b610fe657610f31611b8f565b7f6844fd5e21c932b5197b78ac11bf96e2eaa4e882dd0c88087060cf2065c04ab28484846040518084815260200183815260200180602001828103825283818151815260200191508051906020019080838360005b83811015610fa1578082015181840152602081019050610f86565b50505050905090810190601f168015610fce5780820380516001836020036101000a031916815260200191505b5094505050505060405180910390a160019050610feb565b600090505b9392505050565b610ffa611e7b565b73ffffffffffffffffffffffffffffffffffffffff16611018610d56565b73ffffffffffffffffffffffffffffffffffffffff16146110a1576040517f08c379a00000000000000000000000000000000000000000000000000000000081526004018080602001828103825260208152602001807f4f776e61626c653a2063616c6c6572206973206e6f7420746865206f776e657281525060200191505060405180910390fd5b6110aa81611e83565b50565b61011c60009054906101000a900473ffffffffffffffffffffffffffffffffffffffff1673ffffffffffffffffffffffffffffffffffffffff163373ffffffffffffffffffffffffffffffffffffffff1614611171576040517f08c379a000000000000000000000000000000000000000000000000000000000815260040180806020018281038252600f8152602001807f21757064617465724d616e61676572000000000000000000000000000000000081525060200191505060405180910390fd5b61117a81611f90565b50565b61011c60009054906101000a900473ffffffffffffffffffffffffffffffffffffffff1681565b60006111b06001611d6b565b905090565b6002808111156111c157fe5b608660149054906101000a900460ff1660028111156111dc57fe5b1415611250576040517f08c379a000000000000000000000000000000000000000000000000000000000815260040180806020018281038252600c8152602001807f6661696c6564207374617465000000000000000000000000000000000000000081525060200191505060405180910390fd5b61125b838383610d80565b156112655761135c565b5b60011561128f5760006112796001612021565b905082811415611289575061128f565b50611266565b8160878190555081837f000000000000000000000000000000000000000000000000000000000000000063ffffffff167f608828ad904a0c9250c09004ba7226efb08f35a5c815bb3f76b5a8a271cd08b2846040518080602001828103825283818151815260200191508051906020019080838360005b83811015611321578082015181840152602081019050611306565b50505050905090810190601f16801561134e5780820380516001836020036101000a031916815260200191505b509250505060405180910390a45b505050565b61011b6020528060005260406000206000915054906101000a900463ffffffff1681565b608660149054906101000a900460ff1681565b600060019054906101000a900460ff16806113b757506113b6612191565b5b806113cd575060008054906101000a900460ff16155b611422576040517f08c379a000000000000000000000000000000000000000000000000000000000815260040180806020018281038252602e81526020018061368a602e913960400191505060405180910390fd5b60008060019054906101000a900460ff161590508015611472576001600060016101000a81548160ff02191690831515021790555060016000806101000a81548160ff0219169083151502179055505b61147a6121a2565b6114826122b0565b61148b82611e83565b600061011c60009054906101000a900473ffffffffffffffffffffffffffffffffffffffff1673ffffffffffffffffffffffffffffffffffffffff1663df034cd06040518163ffffffff1660e01b815260040160206040518083038186803b1580156114f657600080fd5b505afa15801561150a573d6000803e3d6000fd5b505050506040513d602081101561152057600080fd5b8101908080519060200190929190505050905061153c816123b8565b7f9e5f57e4ee5f9eeac3131028d48f19d80820ce6fa93c4c66cc82a3e2b9837c3281604051808273ffffffffffffffffffffffffffffffffffffffff16815260200191505060405180910390a15080156115ab5760008060016101000a81548160ff0219169083151502179055505b5050565b608660009054906101000a900473ffffffffffffffffffffffffffffffffffffffff1681565b60006115e1603461251c565b905090565b6115ee611e7b565b73ffffffffffffffffffffffffffffffffffffffff1661160c610d56565b73ffffffffffffffffffffffffffffffffffffffff1614611695576040517f08c379a00000000000000000000000000000000000000000000000000000000081526004018080602001828103825260208152602001807f4f776e61626c653a2063616c6c6572206973206e6f7420746865206f776e657281525060200191505060405180910390fd5b600073ffffffffffffffffffffffffffffffffffffffff168173ffffffffffffffffffffffffffffffffffffffff16141561171b576040517f08c379a00000000000000000000000000000000000000000000000000000000081526004018080602001828103825260268152602001806136426026913960400191505060405180910390fd5b8073ffffffffffffffffffffffffffffffffffffffff1660e960009054906101000a900473ffffffffffffffffffffffffffffffffffffffff1673ffffffffffffffffffffffffffffffffffffffff167f8be0079c531659141344cd1fd0a4f28419497f9722a3daafe3b4186f6b6457e060405160405180910390a38060e960006101000a81548173ffffffffffffffffffffffffffffffffffffffff021916908373ffffffffffffffffffffffffffffffffffffffff16021790555050565b60006117e76001611dc9565b905090565b6002808111156117f857fe5b608660149054906101000a900460ff16600281111561181357fe5b1415611887576040517f08c379a000000000000000000000000000000000000000000000000000000000815260040180806020018281038252600c8152602001807f6661696c6564207374617465000000000000000000000000000000000000000081525060200191505060405180910390fd5b61080081511115611900576040517f08c379a000000000000000000000000000000000000000000000000000000000815260040180806020018281038252600c8152602001807f6d736720746f6f206c6f6e67000000000000000000000000000000000000000081525060200191505060405180910390fd5b600061011b60008563ffffffff1663ffffffff16815260200190815260200160002060009054906101000a900463ffffffff1690506001810161011b60008663ffffffff1663ffffffff16815260200190815260200160002060006101000a81548163ffffffff021916908363ffffffff16021790555060006119c07f00000000000000000000000000000000000000000000000000000000000000003373ffffffffffffffffffffffffffffffffffffffff1660001b84888888612536565b90506000818051906020012090506119e28160346125f290919063ffffffff16565b6119fd6119ed6115d5565b600161272b90919063ffffffff16565b50611a0886846127cb565b67ffffffffffffffff166001611a1c6108c9565b03827f9d4c83d2e57d7d381feb264b44a5015e7f9ef26340f4fc46b558a6dc16dd811a608754866040518083815260200180602001828103825283818151815260200191508051906020019080838360005b83811015611a89578082015181840152602081019050611a6e565b50505050905090810190601f168015611ab65780820380516001836020036101000a031916815260200191505b50935050505060405180910390a4505050505050565b60348060200154905081565b600081565b600080611ae8610b86565b8585604051602001808481526020018381526020018281526020019350505050604051602081830303815290604052805190602001209050611b29816127f2565b9050608660009054906101000a900473ffffffffffffffffffffffffffffffffffffffff1673ffffffffffffffffffffffffffffffffffffffff16611b6e828561284a565b73ffffffffffffffffffffffffffffffffffffffff16149150509392505050565b611b976128f7565b61011c60009054906101000a900473ffffffffffffffffffffffffffffffffffffffff1673ffffffffffffffffffffffffffffffffffffffff16635b3c2cbf336040518263ffffffff1660e01b8152600401808273ffffffffffffffffffffffffffffffffffffffff168152602001915050600060405180830381600087803b158015611c2357600080fd5b505af1158015611c37573d6000803e3d6000fd5b505050503373ffffffffffffffffffffffffffffffffffffffff16608660009054906101000a900473ffffffffffffffffffffffffffffffffffffffff1673ffffffffffffffffffffffffffffffffffffffff167f98064af315f26d7333ba107ba43a128ec74345f4d4e6f2549840fe092a1c8bce60405160405180910390a3565b6000808360000160009054906101000a90046fffffffffffffffffffffffffffffffff166fffffffffffffffffffffffffffffffff1690505b8360000160109054906101000a90046fffffffffffffffffffffffffffffffff166fffffffffffffffffffffffffffffffff168111611d5f5782846001016000838152602001908152602001600020541415611d52576001915050611d65565b8080600101915050611cf2565b50600090505b92915050565b6000808260000160109054906101000a90046fffffffffffffffffffffffffffffffff16905060008360000160009054906101000a90046fffffffffffffffffffffffffffffffff169050611dc0828261291d565b92505050919050565b60008160010160008360000160109054906101000a90046fffffffffffffffffffffffffffffffff166fffffffffffffffffffffffffffffffff168152602001908152602001600020549050919050565b600081604051602001808263ffffffff1660e01b8152600401807f4f50544943530000000000000000000000000000000000000000000000000000815250600601915050604051602081830303815290604052805190602001209050919050565b600033905090565b611e8c8161293f565b611efe576040517f08c379a00000000000000000000000000000000000000000000000000000000081526004018080602001828103825260188152602001807f21636f6e747261637420757064617465724d616e61676572000000000000000081525060200191505060405180910390fd5b8061011c60006101000a81548173ffffffffffffffffffffffffffffffffffffffff021916908373ffffffffffffffffffffffffffffffffffffffff1602179055507f958d788fb4c373604cd4c73aa8c592de127d0819b49bb4dc02c8ecd666e965bf81604051808273ffffffffffffffffffffffffffffffffffffffff16815260200191505060405180910390a150565b80608660006101000a81548173ffffffffffffffffffffffffffffffffffffffff021916908373ffffffffffffffffffffffffffffffffffffffff1602179055507f9e5f57e4ee5f9eeac3131028d48f19d80820ce6fa93c4c66cc82a3e2b9837c3281604051808273ffffffffffffffffffffffffffffffffffffffff16815260200191505060405180910390a150565b6000808260000160109054906101000a90046fffffffffffffffffffffffffffffffff16905060008360000160009054906101000a90046fffffffffffffffffffffffffffffffff1690506000612078838361291d565b14156120ec576040517f08c379a00000000000000000000000000000000000000000000000000000000081526004018080602001828103825260058152602001807f456d70747900000000000000000000000000000000000000000000000000000081525060200191505060405180910390fd5b836001016000826fffffffffffffffffffffffffffffffff1681526020019081526020016000205492506000801b831461214c57836001016000826fffffffffffffffffffffffffffffffff168152602001908152602001600020600090555b600181018460000160006101000a8154816fffffffffffffffffffffffffffffffff02191690836fffffffffffffffffffffffffffffffff1602179055505050919050565b600061219c30612952565b15905090565b600060019054906101000a900460ff16806121c157506121c0612191565b5b806121d7575060008054906101000a900460ff16155b61222c576040517f08c379a000000000000000000000000000000000000000000000000000000000815260040180806020018281038252602e81526020018061368a602e913960400191505060405180910390fd5b60008060019054906101000a900460ff16159050801561227c576001600060016101000a81548160ff02191690831515021790555060016000806101000a81548160ff0219169083151502179055505b612284612965565b61228c612a63565b80156122ad5760008060016101000a81548160ff0219169083151502179055505b50565b600060019054906101000a900460ff16806122cf57506122ce612191565b5b806122e5575060008054906101000a900460ff16155b61233a576040517f08c379a000000000000000000000000000000000000000000000000000000000815260040180806020018281038252602e81526020018061368a602e913960400191505060405180910390fd5b60008060019054906101000a900460ff16159050801561238a576001600060016101000a81548160ff02191690831515021790555060016000806101000a81548160ff0219169083151502179055505b6123946001612c0a565b80156123b55760008060016101000a81548160ff0219169083151502179055505b50565b600060019054906101000a900460ff16806123d757506123d6612191565b5b806123ed575060008054906101000a900460ff16155b612442576040517f08c379a000000000000000000000000000000000000000000000000000000000815260040180806020018281038252602e81526020018061368a602e913960400191505060405180910390fd5b60008060019054906101000a900460ff161590508015612492576001600060016101000a81548160ff02191690831515021790555060016000806101000a81548160ff0219169083151502179055505b81608660006101000a81548173ffffffffffffffffffffffffffffffffffffffff021916908373ffffffffffffffffffffffffffffffffffffffff1602179055506001608660146101000a81548160ff021916908360028111156124f257fe5b021790555080156125185760008060016101000a81548160ff0219169083151502179055505b5050565b600061252f8261252a612c85565b613351565b9050919050565b6060868686868686604051602001808763ffffffff1660e01b81526004018681526020018563ffffffff1660e01b81526004018463ffffffff1660e01b815260040183815260200182805190602001908083835b602083106125ad578051825260208201915060208101905060208303925061258a565b6001836020036101000a038019825116818451168082178552505050505050905001965050505050505060405160208183030381529060405290509695505050505050565b6001602060020a03826020015410612672576040517f08c379a00000000000000000000000000000000000000000000000000000000081526004018080602001828103825260108152602001807f6d65726b6c6520747265652066756c6c0000000000000000000000000000000081525060200191505060405180910390fd5b6001826020016000828254019250508190555060008260200154905060005b602081101561271c57600180831614156126c157828460000182602081106126b557fe5b01819055505050612727565b8360000181602081106126d057fe5b01548360405160200180838152602001828152602001925050506040516020818303038152906040528051906020012092506002828161270c57fe5b0491508080600101915050612691565b50600061272557fe5b505b5050565b600060018360000160109054906101000a90046fffffffffffffffffffffffffffffffff16019050808360000160106101000a8154816fffffffffffffffffffffffffffffffff02191690836fffffffffffffffffffffffffffffffff1602179055506000801b82146127c55781836001016000836fffffffffffffffffffffffffffffffff168152602001908152602001600020819055505b92915050565b60008163ffffffff1660208463ffffffff1667ffffffffffffffff16901b17905092915050565b60008160405160200180807f19457468657265756d205369676e6564204d6573736167653a0a333200000000815250601c01828152602001915050604051602081830303815290604052805190602001209050919050565b600060418251146128c3576040517f08c379a000000000000000000000000000000000000000000000000000000000815260040180806020018281038252601f8152602001807f45434453413a20696e76616c6964207369676e6174757265206c656e6774680081525060200191505060405180910390fd5b60008060006020850151925060408501519150606085015160001a90506128ec8682858561341f565b935050505092915050565b6002608660146101000a81548160ff0219169083600281111561291657fe5b0217905550565b60008160018401036fffffffffffffffffffffffffffffffff16905092915050565b600080823b905060008111915050919050565b600080823b905060008111915050919050565b600060019054906101000a900460ff16806129845750612983612191565b5b8061299a575060008054906101000a900460ff16155b6129ef576040517f08c379a000000000000000000000000000000000000000000000000000000000815260040180806020018281038252602e81526020018061368a602e913960400191505060405180910390fd5b60008060019054906101000a900460ff161590508015612a3f576001600060016101000a81548160ff02191690831515021790555060016000806101000a81548160ff0219169083151502179055505b8015612a605760008060016101000a81548160ff0219169083151502179055505b50565b600060019054906101000a900460ff1680612a825750612a81612191565b5b80612a98575060008054906101000a900460ff16155b612aed576040517f08c379a000000000000000000000000000000000000000000000000000000000815260040180806020018281038252602e81526020018061368a602e913960400191505060405180910390fd5b60008060019054906101000a900460ff161590508015612b3d576001600060016101000a81548160ff02191690831515021790555060016000806101000a81548160ff0219169083151502179055505b6000612b47611e7b565b90508060e960006101000a81548173ffffffffffffffffffffffffffffffffffffffff021916908373ffffffffffffffffffffffffffffffffffffffff1602179055508073ffffffffffffffffffffffffffffffffffffffff16600073ffffffffffffffffffffffffffffffffffffffff167f8be0079c531659141344cd1fd0a4f28419497f9722a3daafe3b4186f6b6457e060405160405180910390a3508015612c075760008060016101000a81548160ff0219169083151502179055505b50565b60008160000160009054906101000a90046fffffffffffffffffffffffffffffffff166fffffffffffffffffffffffffffffffff161415612c825760018160000160006101000a8154816fffffffffffffffffffffffffffffffff02191690836fffffffffffffffffffffffffffffffff1602179055505b50565b612c8d61361e565b600081600060208110612c9c57fe5b6020020181815250507fad3228b676f7d3cd4284a5443f17f1962b36e491b30a40b2405849e597ba5fb581600160208110612cd357fe5b6020020181815250507fb4c11951957c6f8f642c4af61cd6b24640fec6dc7fc607ee8206a99e92410d3081600260208110612d0a57fe5b6020020181815250507f21ddb9a356815c3fac1026b6dec5df3124afbadb485c9ba5a3e3398a04b7ba8581600360208110612d4157fe5b6020020181815250507fe58769b32a1beaf1ea27375a44095a0d1fb664ce2dd358e7fcbfb78c26a1934481600460208110612d7857fe5b6020020181815250507f0eb01ebfc9ed27500cd4dfc979272d1f0913cc9f66540d7e8005811109e1cf2d81600560208110612daf57fe5b6020020181815250507f887c22bd8750d34016ac3c66b5ff102dacdd73f6b014e710b51e8022af9a196881600660208110612de657fe5b6020020181815250507fffd70157e48063fc33c97a050f7f640233bf646cc98d9524c6b92bcf3ab56f8381600760208110612e1d57fe5b6020020181815250507f9867cc5f7f196b93bae1e27e6320742445d290f2263827498b54fec539f756af81600860208110612e5457fe5b6020020181815250507fcefad4e508c098b9a7e1d8feb19955fb02ba9675585078710969d3440f5054e081600960208110612e8b57fe5b6020020181815250507ff9dc3e7fe016e050eff260334f18a5d4fe391d82092319f5964f2e2eb7c1c3a581600a60208110612ec257fe5b6020020181815250507ff8b13a49e282f609c317a833fb8d976d11517c571d1221a265d25af778ecf89281600b60208110612ef957fe5b6020020181815250507f3490c6ceeb450aecdc82e28293031d10c7d73bf85e57bf041a97360aa2c5d99c81600c60208110612f3057fe5b6020020181815250507fc1df82d9c4b87413eae2ef048f94b4d3554cea73d92b0f7af96e0271c691e2bb81600d60208110612f6757fe5b6020020181815250507f5c67add7c6caf302256adedf7ab114da0acfe870d449a3a489f781d659e8becc81600e60208110612f9e57fe5b6020020181815250507fda7bce9f4e8618b6bd2f4132ce798cdc7a60e7e1460a7299e3c6342a579626d281600f60208110612fd557fe5b6020020181815250507f2733e50f526ec2fa19a22b31e8ed50f23cd1fdf94c9154ed3a7609a2f1ff981f8160106020811061300c57fe5b6020020181815250507fe1d3b5c807b281e4683cc6d6315cf95b9ade8641defcb32372f1c126e398ef7a8160116020811061304357fe5b6020020181815250507f5a2dce0a8a7f68bb74560f8f71837c2c2ebbcbf7fffb42ae1896f13f7c7479a08160126020811061307a57fe5b6020020181815250507fb46a28b6f55540f89444f63de0378e3d121be09e06cc9ded1c20e65876d36aa0816013602081106130b157fe5b6020020181815250507fc65e9645644786b620e2dd2ad648ddfcbf4a7e5b1a3a4ecfe7f64667a3f0b7e2816014602081106130e857fe5b6020020181815250507ff4418588ed35a2458cffeb39b93d26f18d2ab13bdce6aee58e7b99359ec2dfd98160156020811061311f57fe5b6020020181815250507f5a9c16dc00d6ef18b7933a6f8dc65ccb55667138776f7dea101070dc8796e3778160166020811061315657fe5b6020020181815250507f4df84f40ae0c8229d0d6069e5c8f39a7c299677a09d367fc7b05e3bc380ee6528160176020811061318d57fe5b6020020181815250507fcdc72595f74c7b1043d0e1ffbab734648c838dfb0527d971b602bc216c9619ef816018602081106131c457fe5b6020020181815250507f0abf5ac974a1ed57f4050aa510dd9c74f508277b39d7973bb2dfccc5eeb0618d816019602081106131fb57fe5b6020020181815250507fb8cd74046ff337f0a7bf2c8e03e10f642c1886798d71806ab1e888d9e5ee87d081601a6020811061323257fe5b6020020181815250507f838c5655cb21c6cb83313b5a631175dff4963772cce9108188b34ac87c81c41e81601b6020811061326957fe5b6020020181815250507f662ee4dd2dd7b2bc707961b1e646c4047669dcb6584f0d8d770daf5d7e7deb2e81601c602081106132a057fe5b6020020181815250507f388ab20e2573d171a88108e79d820e98f26c0b84aa8b2f4aa4968dbb818ea32281601d602081106132d757fe5b6020020181815250507f93237c50ba75ee485f4c22adf2f741400bdf8d6a9cc7df7ecae576221665d73581601e6020811061330e57fe5b6020020181815250507f8448818bb4ae4562849e949e17ac16e0be16688e156b5cf15e098c627c0056a981601f6020811061334557fe5b60200201818152505090565b6000808360200154905060005b602081101561341757600060018284901c169050600086600001836020811061338357fe5b0154905060018214156133c65780856040516020018083815260200182815260200192505050604051602081830303815290604052805190602001209450613408565b848684602081106133d357fe5b602002015160405160200180838152602001828152602001925050506040516020818303038152906040528051906020012094505b5050808060010191505061335e565b505092915050565b60007f7fffffffffffffffffffffffffffffff5d576e7357a4501ddfe92f46681b20a08260001c111561349d576040517f08c379a00000000000000000000000000000000000000000000000000000000081526004018080602001828103825260228152602001806136686022913960400191505060405180910390fd5b601b8460ff1614806134b25750601c8460ff16145b613507576040517f08c379a00000000000000000000000000000000000000000000000000000000081526004018080602001828103825260228152602001806136b86022913960400191505060405180910390fd5b600060018686868660405160008152602001604052604051808581526020018460ff1681526020018381526020018281526020019450505050506020604051602081039080840390855afa158015613563573d6000803e3d6000fd5b505050602060405103519050600073ffffffffffffffffffffffffffffffffffffffff168173ffffffffffffffffffffffffffffffffffffffff161415613612576040517f08c379a00000000000000000000000000000000000000000000000000000000081526004018080602001828103825260188152602001807f45434453413a20696e76616c6964207369676e6174757265000000000000000081525060200191505060405180910390fd5b80915050949350505050565b60405180610400016040528060209060208202803683378082019150509050509056fe4f776e61626c653a206e6577206f776e657220697320746865207a65726f206164647265737345434453413a20696e76616c6964207369676e6174757265202773272076616c7565496e697469616c697a61626c653a20636f6e747261637420697320616c726561647920696e697469616c697a656445434453413a20696e76616c6964207369676e6174757265202776272076616c7565a264697066735822122041ae8f858f44e2aeabd1db34ae744e2ab2ffe36ca855ba6a10125352284af9cd64736f6c63430007060033",
  "devdoc": {
    "author": "Celo Labs Inc.",
    "events": {
      "Dispatch(bytes32,uint256,uint64,bytes32,bytes)": {
        "params": {
          "committedRoot": "the latest notarized root submitted in the last signed Update",
          "destinationAndNonce": "Destination and destination-specific nonce combined in single field ((destination << 32) & nonce)",
          "leafIndex": "Index of message's leaf in merkle tree",
          "message": "Raw bytes of message",
          "messageHash": "Hash of message; the leaf inserted to the Merkle tree for the message"
        }
      },
      "ImproperUpdate(bytes32,bytes32,bytes)": {
        "params": {
          "newRoot": "New root of the improper update",
          "oldRoot": "Old root of the improper update",
          "signature": "Signature on `oldRoot` and `newRoot"
        }
      },
      "NewUpdater(address)": {
        "params": {
          "updater": "The address of the new updater"
        }
      },
      "NewUpdaterManager(address)": {
        "params": {
          "updaterManager": "The address of the new updaterManager"
        }
      },
      "UpdaterSlashed(address,address)": {
        "params": {
          "reporter": "The address of the entity that reported the updater misbehavior",
          "updater": "The address of the updater"
        }
      }
    },
    "kind": "dev",
    "methods": {
      "dispatch(uint32,bytes32,bytes)": {
        "details": "Format the message, insert its hash into Merkle tree, enqueue the new Merkle root, and emit `Dispatch` event with message information.",
        "params": {
          "_destinationDomain": "Domain of destination chain",
          "_messageBody": "Raw bytes content of message",
          "_recipientAddress": "Address of recipient on destination chain as bytes32"
        }
      },
      "doubleUpdate(bytes32,bytes32[2],bytes,bytes)": {
        "details": "When `fail()` is called on Home, updater is slashed.",
        "params": {
          "_newRoot": "Array containing two conflicting new roots",
          "_oldRoot": "Old root shared between two conflicting updates",
          "_signature": "Signature on `_oldRoot` and `_newRoot`[0]",
          "_signature2": "Signature on `_oldRoot` and `_newRoot`[1]"
        }
      },
      "improperUpdate(bytes32,bytes32,bytes)": {
        "details": "Reverts (and doesn't slash updater) if signature is invalid or update not current",
        "params": {
          "_newRoot": "New merkle tree root",
          "_oldRoot": "Old merkle tree root (should equal home's committedRoot)",
          "_signature": "Updater signature on `_oldRoot` and `_newRoot`"
        },
        "returns": {
          "_0": "TRUE if update was an Improper Update (implying Updater was slashed)"
        }
      },
      "owner()": {
        "details": "Returns the address of the current owner."
      },
      "renounceOwnership()": {
        "details": "Leaves the contract without owner. It will not be possible to call `onlyOwner` functions anymore. Can only be called by the current owner. NOTE: Renouncing ownership will leave the contract without an owner, thereby removing any functionality that is only available to the owner."
      },
      "setUpdater(address)": {
        "params": {
          "_updater": "the new Updater"
        }
      },
      "setUpdaterManager(address)": {
        "details": "Home(s) will initially be initialized using a trusted UpdaterManager contract; we will progressively decentralize by swapping the trusted contract with a new implementation that implements Updater bonding & slashing, and rules for Updater selection & rotation",
        "params": {
          "_updaterManager": "the new UpdaterManager contract"
        }
      },
      "suggestUpdate()": {
        "details": "If queue is empty, null bytes returned for both (No update is necessary because no messages have been dispatched since the last update)",
        "returns": {
          "_committedRoot": "Latest root signed by the Updater",
          "_new": "Latest enqueued Merkle root"
        }
      },
      "transferOwnership(address)": {
        "details": "Transfers ownership of the contract to a new account (`newOwner`). Can only be called by the current owner."
      },
      "update(bytes32,bytes32,bytes)": {
        "details": "emits Update eventIf _newRoot is not contained in the queue, the Update is a fraudulent Improper Update, so the Updater is slashed & Home is set to FAILED state",
        "params": {
          "_committedRoot": "Current updated merkle root which the update is building off of",
          "_newRoot": "New merkle root to update the contract state to",
          "_signature": "Updater signature on `_committedRoot` and `_newRoot`"
        }
      }
    },
    "title": "Home",
    "version": 1
  },
  "userdoc": {
    "events": {
      "Dispatch(bytes32,uint256,uint64,bytes32,bytes)": {
        "notice": "Emitted when a new message is dispatched via Optics"
      },
      "DoubleUpdate(bytes32,bytes32[2],bytes,bytes)": {
        "notice": "Emitted when proof of a double update is submitted, which sets the contract to FAILED state"
      },
      "ImproperUpdate(bytes32,bytes32,bytes)": {
        "notice": "Emitted when proof of an improper update is submitted, which sets the contract to FAILED state"
      },
      "NewUpdater(address)": {
        "notice": "Emitted when Updater is rotated by the UpdaterManager"
      },
      "NewUpdaterManager(address)": {
        "notice": "Emitted when the UpdaterManager contract is changed"
      },
      "Update(uint32,bytes32,bytes32,bytes)": {
        "notice": "Emitted when update is made on Home or unconfirmed update root is submitted on Replica"
      },
      "UpdaterSlashed(address,address)": {
        "notice": "Emitted when the Updater is slashed (should be paired with ImproperUpdater or DoubleUpdate event)"
      }
    },
    "kind": "user",
    "methods": {
      "count()": {
        "notice": "Returns the number of inserted leaves in the tree (current index)"
      },
      "dispatch(uint32,bytes32,bytes)": {
        "notice": "Dispatch the message it to the destination domain & recipient"
      },
      "doubleUpdate(bytes32,bytes32[2],bytes,bytes)": {
        "notice": "Called by external agent. Checks that signatures on two sets of roots are valid and that the new roots conflict with each other. If both cases hold true, the contract is failed and a `DoubleUpdate` event is emitted."
      },
      "homeDomainHash()": {
        "notice": "Hash of Home domain concatenated with \"OPTICS\""
      },
      "improperUpdate(bytes32,bytes32,bytes)": {
        "notice": "Check if an Update is an Improper Update; if so, slash the Updater and set the contract to FAILED state. An Improper Update is an update building off of the Home's `committedRoot` for which the `_newRoot` does not currently exist in the Home's queue. This would mean that message(s) that were not truly dispatched on Home were falsely included in the signed root. An Improper Update will only be accepted as valid by the Replica If an Improper Update is attempted on Home, the Updater will be slashed immediately. If an Improper Update is submitted to the Replica, it should be relayed to the Home contract using this function in order to slash the Updater with an Improper Update. An Improper Update submitted to the Replica is only valid while the `_oldRoot` is still equal to the `committedRoot` on Home; if the `committedRoot` on Home has already been updated with a valid Update, then the Updater should be slashed with a Double Update."
      },
      "queueContains(bytes32)": {
        "notice": "Returns TRUE iff `_item` is in the queue"
      },
      "queueEnd()": {
        "notice": "Returns last item enqueued to the queue"
      },
      "queueLength()": {
        "notice": "Returns number of elements in queue"
      },
      "root()": {
        "notice": "Calculates and returns tree's current root"
      },
      "setUpdater(address)": {
        "notice": "Set a new Updater"
      },
      "setUpdaterManager(address)": {
        "notice": "Set a new UpdaterManager contract"
      },
      "suggestUpdate()": {
        "notice": "Suggest an update for the Updater to sign and submit."
      },
      "update(bytes32,bytes32,bytes)": {
        "notice": "Submit a signature from the Updater \"notarizing\" a root, which updates the Home contract's `committedRoot`, and publishes the signature which will be relayed to Replica contracts"
      }
    },
    "notice": "Accepts messages to be dispatched to remote chains, constructs a Merkle tree of the messages, and accepts signatures from a bonded Updater which notarize the Merkle tree roots. Accepts submissions of fraudulent signatures by the Updater and slashes the Updater in this case.",
    "version": 1
  },
  "storageLayout": {
    "storage": [
      {
        "astId": 3210,
        "contract": "@celo-org/optics-sol/contracts/Home.sol:Home",
        "label": "_initialized",
        "offset": 0,
        "slot": "0",
        "type": "t_bool"
      },
      {
        "astId": 3213,
        "contract": "@celo-org/optics-sol/contracts/Home.sol:Home",
        "label": "_initializing",
        "offset": 1,
        "slot": "0",
        "type": "t_bool"
      },
      {
        "astId": 767,
        "contract": "@celo-org/optics-sol/contracts/Home.sol:Home",
        "label": "queue",
        "offset": 0,
        "slot": "1",
        "type": "t_struct(Queue)2570_storage"
      },
      {
        "astId": 771,
        "contract": "@celo-org/optics-sol/contracts/Home.sol:Home",
        "label": "__GAP",
        "offset": 0,
        "slot": "3",
        "type": "t_array(t_uint256)49_storage"
      },
      {
        "astId": 727,
        "contract": "@celo-org/optics-sol/contracts/Home.sol:Home",
        "label": "tree",
        "offset": 0,
        "slot": "52",
        "type": "t_struct(Tree)1794_storage"
      },
      {
        "astId": 731,
        "contract": "@celo-org/optics-sol/contracts/Home.sol:Home",
        "label": "__GAP",
        "offset": 0,
        "slot": "85",
        "type": "t_array(t_uint256)49_storage"
      },
      {
        "astId": 18,
        "contract": "@celo-org/optics-sol/contracts/Home.sol:Home",
        "label": "updater",
        "offset": 0,
        "slot": "134",
        "type": "t_address"
      },
      {
        "astId": 20,
        "contract": "@celo-org/optics-sol/contracts/Home.sol:Home",
        "label": "state",
        "offset": 20,
        "slot": "134",
        "type": "t_enum(States)14"
      },
      {
        "astId": 22,
        "contract": "@celo-org/optics-sol/contracts/Home.sol:Home",
        "label": "committedRoot",
        "offset": 0,
        "slot": "135",
        "type": "t_bytes32"
      },
      {
        "astId": 26,
        "contract": "@celo-org/optics-sol/contracts/Home.sol:Home",
        "label": "__GAP",
        "offset": 0,
        "slot": "136",
        "type": "t_array(t_uint256)47_storage"
      },
      {
        "astId": 3557,
        "contract": "@celo-org/optics-sol/contracts/Home.sol:Home",
        "label": "__gap",
        "offset": 0,
        "slot": "183",
        "type": "t_array(t_uint256)50_storage"
      },
      {
        "astId": 3083,
        "contract": "@celo-org/optics-sol/contracts/Home.sol:Home",
        "label": "_owner",
        "offset": 0,
        "slot": "233",
        "type": "t_address"
      },
      {
        "astId": 3202,
        "contract": "@celo-org/optics-sol/contracts/Home.sol:Home",
        "label": "__gap",
        "offset": 0,
        "slot": "234",
        "type": "t_array(t_uint256)49_storage"
      },
      {
        "astId": 273,
        "contract": "@celo-org/optics-sol/contracts/Home.sol:Home",
        "label": "nonces",
        "offset": 0,
        "slot": "283",
        "type": "t_mapping(t_uint32,t_uint32)"
      },
      {
        "astId": 275,
        "contract": "@celo-org/optics-sol/contracts/Home.sol:Home",
        "label": "updaterManager",
        "offset": 0,
        "slot": "284",
        "type": "t_contract(IUpdaterManager)1774"
      },
      {
        "astId": 279,
        "contract": "@celo-org/optics-sol/contracts/Home.sol:Home",
        "label": "__GAP",
        "offset": 0,
        "slot": "285",
        "type": "t_array(t_uint256)48_storage"
      }
    ],
    "types": {
      "t_address": {
        "encoding": "inplace",
        "label": "address",
        "numberOfBytes": "20"
      },
      "t_array(t_bytes32)32_storage": {
        "base": "t_bytes32",
        "encoding": "inplace",
        "label": "bytes32[32]",
        "numberOfBytes": "1024"
      },
      "t_array(t_uint256)47_storage": {
        "base": "t_uint256",
        "encoding": "inplace",
        "label": "uint256[47]",
        "numberOfBytes": "1504"
      },
      "t_array(t_uint256)48_storage": {
        "base": "t_uint256",
        "encoding": "inplace",
        "label": "uint256[48]",
        "numberOfBytes": "1536"
      },
      "t_array(t_uint256)49_storage": {
        "base": "t_uint256",
        "encoding": "inplace",
        "label": "uint256[49]",
        "numberOfBytes": "1568"
      },
      "t_array(t_uint256)50_storage": {
        "base": "t_uint256",
        "encoding": "inplace",
        "label": "uint256[50]",
        "numberOfBytes": "1600"
      },
      "t_bool": {
        "encoding": "inplace",
        "label": "bool",
        "numberOfBytes": "1"
      },
      "t_bytes32": {
        "encoding": "inplace",
        "label": "bytes32",
        "numberOfBytes": "32"
      },
      "t_contract(IUpdaterManager)1774": {
        "encoding": "inplace",
        "label": "contract IUpdaterManager",
        "numberOfBytes": "20"
      },
      "t_enum(States)14": {
        "encoding": "inplace",
        "label": "enum Common.States",
        "numberOfBytes": "1"
      },
      "t_mapping(t_uint256,t_bytes32)": {
        "encoding": "mapping",
        "key": "t_uint256",
        "label": "mapping(uint256 => bytes32)",
        "numberOfBytes": "32",
        "value": "t_bytes32"
      },
      "t_mapping(t_uint32,t_uint32)": {
        "encoding": "mapping",
        "key": "t_uint32",
        "label": "mapping(uint32 => uint32)",
        "numberOfBytes": "32",
        "value": "t_uint32"
      },
      "t_struct(Queue)2570_storage": {
        "encoding": "inplace",
        "label": "struct QueueLib.Queue",
        "members": [
          {
            "astId": 2563,
            "contract": "@celo-org/optics-sol/contracts/Home.sol:Home",
            "label": "first",
            "offset": 0,
            "slot": "0",
            "type": "t_uint128"
          },
          {
            "astId": 2565,
            "contract": "@celo-org/optics-sol/contracts/Home.sol:Home",
            "label": "last",
            "offset": 16,
            "slot": "0",
            "type": "t_uint128"
          },
          {
            "astId": 2569,
            "contract": "@celo-org/optics-sol/contracts/Home.sol:Home",
            "label": "queue",
            "offset": 0,
            "slot": "1",
            "type": "t_mapping(t_uint256,t_bytes32)"
          }
        ],
        "numberOfBytes": "64"
      },
      "t_struct(Tree)1794_storage": {
        "encoding": "inplace",
        "label": "struct MerkleLib.Tree",
        "members": [
          {
            "astId": 1791,
            "contract": "@celo-org/optics-sol/contracts/Home.sol:Home",
            "label": "branch",
            "offset": 0,
            "slot": "0",
            "type": "t_array(t_bytes32)32_storage"
          },
          {
            "astId": 1793,
            "contract": "@celo-org/optics-sol/contracts/Home.sol:Home",
            "label": "count",
            "offset": 0,
            "slot": "32",
            "type": "t_uint256"
          }
        ],
        "numberOfBytes": "1056"
      },
      "t_uint128": {
        "encoding": "inplace",
        "label": "uint128",
        "numberOfBytes": "16"
      },
      "t_uint256": {
        "encoding": "inplace",
        "label": "uint256",
        "numberOfBytes": "32"
      },
      "t_uint32": {
        "encoding": "inplace",
        "label": "uint32",
        "numberOfBytes": "4"
      }
    }
  }
}